{
  "contractName": "GeniosClub",
  "abi": [
    {
      "inputs": [
        {
          "internalType": "address",
          "name": "id1",
          "type": "address"
        },
        {
          "internalType": "address",
          "name": "tokenAddr",
          "type": "address"
        },
        {
          "internalType": "address",
          "name": "poolAddr",
          "type": "address"
        },
        {
          "internalType": "address",
          "name": "clubAddr",
          "type": "address"
        },
        {
          "internalType": "address",
          "name": "academyAddr",
          "type": "address"
        }
      ],
      "stateMutability": "nonpayable",
      "type": "constructor"
    },
    {
      "anonymous": false,
      "inputs": [
        {
          "indexed": true,
          "internalType": "uint256",
          "name": "userId",
          "type": "uint256"
        },
        {
          "indexed": true,
          "internalType": "address",
          "name": "user",
          "type": "address"
        },
        {
          "indexed": true,
          "internalType": "uint8",
          "name": "level",
          "type": "uint8"
        },
        {
          "indexed": false,
          "internalType": "uint256",
          "name": "amount",
          "type": "uint256"
        }
      ],
      "name": "G3X7AcademyUpdated",
      "type": "event"
    },
    {
      "anonymous": false,
      "inputs": [
        {
          "indexed": true,
          "internalType": "uint256",
          "name": "userId",
          "type": "uint256"
        },
        {
          "indexed": true,
          "internalType": "address",
          "name": "user",
          "type": "address"
        },
        {
          "indexed": true,
          "internalType": "uint8",
          "name": "level",
          "type": "uint8"
        },
        {
          "indexed": false,
          "internalType": "uint256",
          "name": "amount",
          "type": "uint256"
        }
      ],
      "name": "G3X7ClubUpdated",
      "type": "event"
    },
    {
      "anonymous": false,
      "inputs": [
        {
          "indexed": true,
          "internalType": "uint256",
          "name": "userId",
          "type": "uint256"
        },
        {
          "indexed": true,
          "internalType": "address",
          "name": "user",
          "type": "address"
        },
        {
          "indexed": true,
          "internalType": "uint8",
          "name": "level",
          "type": "uint8"
        },
        {
          "indexed": false,
          "internalType": "uint256",
          "name": "amount",
          "type": "uint256"
        }
      ],
      "name": "G3X7RankUpdated",
      "type": "event"
    },
    {
      "anonymous": false,
      "inputs": [
        {
          "indexed": true,
          "internalType": "uint256",
          "name": "userId",
          "type": "uint256"
        },
        {
          "indexed": true,
          "internalType": "address",
          "name": "receiver",
          "type": "address"
        },
        {
          "indexed": true,
          "internalType": "address",
          "name": "from",
          "type": "address"
        },
        {
          "indexed": false,
          "internalType": "uint8",
          "name": "matrix",
          "type": "uint8"
        },
        {
          "indexed": false,
          "internalType": "uint8",
          "name": "level",
          "type": "uint8"
        }
      ],
      "name": "MissedTokenReceive",
      "type": "event"
    },
    {
      "anonymous": false,
      "inputs": [
        {
          "indexed": true,
          "internalType": "address",
          "name": "user",
          "type": "address"
        },
        {
          "indexed": true,
          "internalType": "address",
          "name": "referrer",
          "type": "address"
        },
        {
          "indexed": true,
          "internalType": "uint256",
          "name": "userId",
          "type": "uint256"
        },
        {
          "indexed": false,
          "internalType": "uint8",
          "name": "matrix",
          "type": "uint8"
        },
        {
          "indexed": false,
          "internalType": "uint8",
          "name": "level",
          "type": "uint8"
        },
        {
          "indexed": false,
          "internalType": "uint8",
          "name": "place",
          "type": "uint8"
        }
      ],
      "name": "NewUserPlace",
      "type": "event"
    },
    {
      "anonymous": false,
      "inputs": [
        {
          "indexed": true,
          "internalType": "uint256",
          "name": "userId",
          "type": "uint256"
        },
        {
          "indexed": true,
          "internalType": "address",
          "name": "user",
          "type": "address"
        },
        {
          "indexed": true,
          "internalType": "uint8",
          "name": "level",
          "type": "uint8"
        }
      ],
      "name": "RankEarners",
      "type": "event"
    },
    {
      "anonymous": false,
      "inputs": [
        {
          "indexed": true,
          "internalType": "address",
          "name": "user",
          "type": "address"
        },
        {
          "indexed": true,
          "internalType": "address",
          "name": "referrer",
          "type": "address"
        },
        {
          "indexed": true,
          "internalType": "uint256",
          "name": "userId",
          "type": "uint256"
        },
        {
          "indexed": false,
          "internalType": "uint256",
          "name": "referrerId",
          "type": "uint256"
        }
      ],
      "name": "Registration",
      "type": "event"
    },
    {
      "anonymous": false,
      "inputs": [
        {
          "indexed": true,
          "internalType": "uint256",
          "name": "userId",
          "type": "uint256"
        },
        {
          "indexed": true,
          "internalType": "address",
          "name": "user",
          "type": "address"
        },
        {
          "indexed": true,
          "internalType": "address",
          "name": "CurrentRef",
          "type": "address"
        },
        {
          "indexed": false,
          "internalType": "address",
          "name": "caller",
          "type": "address"
        },
        {
          "indexed": false,
          "internalType": "uint8",
          "name": "matrix",
          "type": "uint8"
        },
        {
          "indexed": false,
          "internalType": "uint8",
          "name": "level",
          "type": "uint8"
        }
      ],
      "name": "Reinvest",
      "type": "event"
    },
    {
      "anonymous": false,
      "inputs": [
        {
          "indexed": true,
          "internalType": "uint256",
          "name": "userId",
          "type": "uint256"
        },
        {
          "indexed": true,
          "internalType": "address",
          "name": "from",
          "type": "address"
        },
        {
          "indexed": true,
          "internalType": "address",
          "name": "receiver",
          "type": "address"
        },
        {
          "indexed": false,
          "internalType": "uint8",
          "name": "matrix",
          "type": "uint8"
        },
        {
          "indexed": false,
          "internalType": "uint8",
          "name": "level",
          "type": "uint8"
        }
      ],
      "name": "SentExtraTokenDividends",
      "type": "event"
    },
    {
      "anonymous": false,
      "inputs": [
        {
          "indexed": true,
          "internalType": "uint256",
          "name": "userId",
          "type": "uint256"
        },
        {
          "indexed": true,
          "internalType": "address",
          "name": "user",
          "type": "address"
        },
        {
          "indexed": true,
          "internalType": "address",
          "name": "referrer",
          "type": "address"
        },
        {
          "indexed": false,
          "internalType": "uint8",
          "name": "matrix",
          "type": "uint8"
        },
        {
          "indexed": false,
          "internalType": "uint8",
          "name": "level",
          "type": "uint8"
        }
      ],
      "name": "Upgrade",
      "type": "event"
    },
    {
      "inputs": [],
      "name": "AcademyAddr",
      "outputs": [
        {
          "internalType": "address",
          "name": "",
          "type": "address"
        }
      ],
      "stateMutability": "view",
      "type": "function",
      "constant": true
    },
    {
      "inputs": [],
      "name": "AcademyComm",
      "outputs": [
        {
          "internalType": "uint8",
          "name": "",
          "type": "uint8"
        }
      ],
      "stateMutability": "view",
      "type": "function",
      "constant": true
    },
    {
      "inputs": [],
      "name": "ClubAddr",
      "outputs": [
        {
          "internalType": "address",
          "name": "",
          "type": "address"
        }
      ],
      "stateMutability": "view",
      "type": "function",
      "constant": true
    },
    {
      "inputs": [],
      "name": "ClubComm",
      "outputs": [
        {
          "internalType": "uint8",
          "name": "",
          "type": "uint8"
        }
      ],
      "stateMutability": "view",
      "type": "function",
      "constant": true
    },
    {
      "inputs": [],
      "name": "Id1",
      "outputs": [
        {
          "internalType": "address",
          "name": "",
          "type": "address"
        }
      ],
      "stateMutability": "view",
      "type": "function",
      "constant": true
    },
    {
      "inputs": [
        {
          "internalType": "uint256",
          "name": "",
          "type": "uint256"
        }
      ],
      "name": "IdToAddress",
      "outputs": [
        {
          "internalType": "address",
          "name": "",
          "type": "address"
        }
      ],
      "stateMutability": "view",
      "type": "function",
      "constant": true
    },
    {
      "inputs": [
        {
          "internalType": "address",
          "name": "",
          "type": "address"
        }
      ],
      "name": "IsUserExists",
      "outputs": [
        {
          "internalType": "bool",
          "name": "",
          "type": "bool"
        }
      ],
      "stateMutability": "view",
      "type": "function",
      "constant": true
    },
    {
      "inputs": [],
      "name": "LAST_LEVEL",
      "outputs": [
        {
          "internalType": "uint8",
          "name": "",
          "type": "uint8"
        }
      ],
      "stateMutability": "view",
      "type": "function",
      "constant": true
    },
    {
      "inputs": [],
      "name": "LastUserId",
      "outputs": [
        {
          "internalType": "uint256",
          "name": "",
          "type": "uint256"
        }
      ],
      "stateMutability": "view",
      "type": "function",
      "constant": true
    },
    {
      "inputs": [
        {
          "internalType": "uint256",
          "name": "",
          "type": "uint256"
        }
      ],
      "name": "LevelPrice",
      "outputs": [
        {
          "internalType": "uint256",
          "name": "",
          "type": "uint256"
        }
      ],
      "stateMutability": "view",
      "type": "function",
      "constant": true
    },
    {
      "inputs": [
        {
          "internalType": "uint256",
          "name": "",
          "type": "uint256"
        }
      ],
      "name": "LevelPricePercentage",
      "outputs": [
        {
          "internalType": "uint8",
          "name": "",
          "type": "uint8"
        }
      ],
      "stateMutability": "view",
      "type": "function",
      "constant": true
    },
    {
      "inputs": [],
      "name": "Platform",
      "outputs": [
        {
          "internalType": "uint256",
          "name": "G3X2TotalEarnings",
          "type": "uint256"
        },
        {
          "internalType": "uint256",
          "name": "G3X7TotalEarnings",
          "type": "uint256"
        }
      ],
      "stateMutability": "view",
      "type": "function",
      "constant": true
    },
    {
      "inputs": [],
      "name": "PoolAddr",
      "outputs": [
        {
          "internalType": "address",
          "name": "",
          "type": "address"
        }
      ],
      "stateMutability": "view",
      "type": "function",
      "constant": true
    },
    {
      "inputs": [
        {
          "internalType": "uint256",
          "name": "",
          "type": "uint256"
        }
      ],
      "name": "RankReqTotalTeam",
      "outputs": [
        {
          "internalType": "uint256",
          "name": "",
          "type": "uint256"
        }
      ],
      "stateMutability": "view",
      "type": "function",
      "constant": true
    },
    {
      "inputs": [],
      "name": "RanksComm",
      "outputs": [
        {
          "internalType": "uint8",
          "name": "",
          "type": "uint8"
        }
      ],
      "stateMutability": "view",
      "type": "function",
      "constant": true
    },
    {
      "inputs": [],
      "name": "TOKEN",
      "outputs": [
        {
          "internalType": "address",
          "name": "",
          "type": "address"
        }
      ],
      "stateMutability": "view",
      "type": "function",
      "constant": true
    },
    {
      "inputs": [
        {
          "internalType": "address",
          "name": "",
          "type": "address"
        }
      ],
      "name": "Users",
      "outputs": [
        {
          "internalType": "uint256",
          "name": "Id",
          "type": "uint256"
        },
        {
          "internalType": "address",
          "name": "Ref",
          "type": "address"
        },
        {
          "internalType": "uint256",
          "name": "Amount",
          "type": "uint256"
        },
        {
          "internalType": "uint256",
          "name": "TotalTeam",
          "type": "uint256"
        },
        {
          "internalType": "uint256",
          "name": "DirectRefs",
          "type": "uint256"
        },
        {
          "internalType": "uint256",
          "name": "G3X2Earnings",
          "type": "uint256"
        },
        {
          "internalType": "uint256",
          "name": "G3X7Earnings",
          "type": "uint256"
        }
      ],
      "stateMutability": "view",
      "type": "function",
      "constant": true
    },
    {
      "inputs": [
        {
          "internalType": "address",
          "name": "",
          "type": "address"
        }
      ],
      "name": "UsersTeams",
      "outputs": [
        {
          "internalType": "uint256",
          "name": "G3x2FirstTeam",
          "type": "uint256"
        },
        {
          "internalType": "uint256",
          "name": "G3x2SecondTeam",
          "type": "uint256"
        },
        {
          "internalType": "uint256",
          "name": "G3x7FirstTeam",
          "type": "uint256"
        },
        {
          "internalType": "uint256",
          "name": "G3x7SecondTeam",
          "type": "uint256"
        },
        {
          "internalType": "uint256",
          "name": "G3x7ThirdTeam",
          "type": "uint256"
        },
        {
          "internalType": "uint256",
          "name": "G3x7FourthTeam",
          "type": "uint256"
        },
        {
          "internalType": "uint256",
          "name": "G3x7FifthTeam",
          "type": "uint256"
        },
        {
          "internalType": "uint256",
          "name": "G3x7SixthTeam",
          "type": "uint256"
        },
        {
          "internalType": "uint256",
          "name": "G3x7SeventhTeam",
          "type": "uint256"
        }
      ],
      "stateMutability": "view",
      "type": "function",
      "constant": true
    },
    {
      "inputs": [
        {
          "internalType": "address",
          "name": "refAddr",
          "type": "address"
        }
      ],
      "name": "RegistrationExt",
      "outputs": [],
      "stateMutability": "nonpayable",
      "type": "function"
    },
    {
      "inputs": [
        {
          "internalType": "uint8",
          "name": "level",
          "type": "uint8"
        },
        {
          "internalType": "uint8",
          "name": "matrix",
          "type": "uint8"
        }
      ],
      "name": "buyNewLevel",
      "outputs": [],
      "stateMutability": "nonpayable",
      "type": "function"
    },
    {
      "inputs": [
        {
          "internalType": "address",
          "name": "userAddr",
          "type": "address"
        },
        {
          "internalType": "uint8",
          "name": "level",
          "type": "uint8"
        }
      ],
      "name": "findFreeG3X2Referrer",
      "outputs": [
        {
          "internalType": "address",
          "name": "refAddr",
          "type": "address"
        }
      ],
      "stateMutability": "view",
      "type": "function",
      "constant": true
    },
    {
      "inputs": [
        {
          "internalType": "address",
          "name": "userAddr",
          "type": "address"
        },
        {
          "internalType": "uint8",
          "name": "level",
          "type": "uint8"
        }
      ],
      "name": "findFreeG3X7Referrer",
      "outputs": [
        {
          "internalType": "address",
          "name": "refAddr",
          "type": "address"
        }
      ],
      "stateMutability": "view",
      "type": "function",
      "constant": true
    },
    {
      "inputs": [
        {
          "internalType": "address",
          "name": "userAddr",
          "type": "address"
        }
      ],
      "name": "activateAllG3X2Levels",
      "outputs": [],
      "stateMutability": "nonpayable",
      "type": "function"
    },
    {
      "inputs": [
        {
          "internalType": "address",
          "name": "userAddr",
          "type": "address"
        }
      ],
      "name": "activateAllG3X7Levels",
      "outputs": [],
      "stateMutability": "nonpayable",
      "type": "function"
    },
    {
      "inputs": [
        {
          "internalType": "address",
          "name": "userAddr",
          "type": "address"
        },
        {
          "internalType": "uint8",
          "name": "level",
          "type": "uint8"
        }
      ],
      "name": "usersActiveG3X2Levels",
      "outputs": [
        {
          "internalType": "bool",
          "name": "",
          "type": "bool"
        }
      ],
      "stateMutability": "view",
      "type": "function",
      "constant": true
    },
    {
      "inputs": [
        {
          "internalType": "address",
          "name": "userAddr",
          "type": "address"
        },
        {
          "internalType": "uint8",
          "name": "level",
          "type": "uint8"
        }
      ],
      "name": "usersActiveG3X7Levels",
      "outputs": [
        {
          "internalType": "bool",
          "name": "",
          "type": "bool"
        }
      ],
      "stateMutability": "view",
      "type": "function",
      "constant": true
    },
    {
      "inputs": [
        {
          "internalType": "address",
          "name": "userAddr",
          "type": "address"
        },
        {
          "internalType": "uint8",
          "name": "level",
          "type": "uint8"
        }
      ],
      "name": "usersRanks",
      "outputs": [
        {
          "components": [
            {
              "internalType": "bool",
              "name": "IsActive",
              "type": "bool"
            },
            {
              "internalType": "uint256",
              "name": "TotalTeam",
              "type": "uint256"
            },
            {
              "internalType": "uint256",
              "name": "DirectRefs",
              "type": "uint256"
            }
          ],
          "internalType": "struct GeniosClub.Rank",
          "name": "",
          "type": "tuple"
        }
      ],
      "stateMutability": "view",
      "type": "function",
      "constant": true
    },
    {
      "inputs": [
        {
          "internalType": "address",
          "name": "userAddr",
          "type": "address"
        },
        {
          "internalType": "uint8",
          "name": "level",
          "type": "uint8"
        }
      ],
      "name": "usersG3X2Matrix",
      "outputs": [
        {
          "components": [
            {
              "internalType": "address",
              "name": "CurrentRef",
              "type": "address"
            },
            {
              "internalType": "address[]",
              "name": "FirstLevelRefs",
              "type": "address[]"
            },
            {
              "internalType": "address[]",
              "name": "SecondLevelRefs",
              "type": "address[]"
            },
            {
              "internalType": "bool",
              "name": "Blocked",
              "type": "bool"
            },
            {
              "internalType": "uint256",
              "name": "ReinvestCount",
              "type": "uint256"
            },
            {
              "internalType": "uint256",
              "name": "ReinvestTime",
              "type": "uint256"
            },
            {
              "internalType": "uint256",
              "name": "Earnings",
              "type": "uint256"
            }
          ],
          "internalType": "struct GeniosClub.G3X2",
          "name": "",
          "type": "tuple"
        }
      ],
      "stateMutability": "view",
      "type": "function",
      "constant": true
    },
    {
      "inputs": [
        {
          "internalType": "address",
          "name": "userAddr",
          "type": "address"
        },
        {
          "internalType": "uint8",
          "name": "level",
          "type": "uint8"
        }
      ],
      "name": "usersG3X7Matrix",
      "outputs": [
        {
          "components": [
            {
              "internalType": "address",
              "name": "CurrentRef",
              "type": "address"
            },
            {
              "internalType": "address[]",
              "name": "FirstLevelRefs",
              "type": "address[]"
            },
            {
              "internalType": "address[]",
              "name": "SecondLevelRefs",
              "type": "address[]"
            },
            {
              "internalType": "address[]",
              "name": "ThirdLevelRefs",
              "type": "address[]"
            },
            {
              "internalType": "address[]",
              "name": "FourthLevelRefs",
              "type": "address[]"
            },
            {
              "internalType": "address[]",
              "name": "FifthLevelRefs",
              "type": "address[]"
            },
            {
              "internalType": "address[]",
              "name": "SixthLevelRefs",
              "type": "address[]"
            },
            {
              "internalType": "address[]",
              "name": "SeventhLevelRefs",
              "type": "address[]"
            },
            {
              "internalType": "bool",
              "name": "Blocked",
              "type": "bool"
            },
            {
              "internalType": "uint256",
              "name": "ReinvestCount",
              "type": "uint256"
            },
            {
              "internalType": "uint256",
              "name": "ReinvestTime",
              "type": "uint256"
            },
            {
              "internalType": "uint256",
              "name": "Earnings",
              "type": "uint256"
            }
          ],
          "internalType": "struct GeniosClub.G3X7",
          "name": "",
          "type": "tuple"
        }
      ],
      "stateMutability": "view",
      "type": "function",
      "constant": true
    },
    {
      "inputs": [],
      "name": "withdraw",
      "outputs": [],
      "stateMutability": "nonpayable",
      "type": "function"
    },
    {
      "inputs": [
        {
          "internalType": "address",
          "name": "userAddr",
          "type": "address"
        }
      ],
      "name": "getDirectRefsIds",
      "outputs": [
        {
          "internalType": "uint256[]",
          "name": "refs",
          "type": "uint256[]"
        }
      ],
      "stateMutability": "view",
      "type": "function",
      "constant": true
    },
    {
      "inputs": [
        {
          "internalType": "uint256",
          "name": "tAmount",
          "type": "uint256"
        },
        {
          "internalType": "uint8",
          "name": "tPerc",
          "type": "uint8"
        }
      ],
      "name": "calPerc",
      "outputs": [
        {
          "internalType": "uint256",
          "name": "",
          "type": "uint256"
        }
      ],
      "stateMutability": "pure",
      "type": "function",
      "constant": true
    }
  ],
  "bytecode": "0x60016004556101a0604052600060809081526722b1c8c1227a000060a052678ac7230489e8000060c05268022b1c8c1227a0000060e0526808ac7230489e800000610100526822b1c8c1227a00000061012052688ac7230489e80000006101405269022b1c8c1227a0000000610160526908ac7230489e80000000610180526200008d906009908162000384565b50604080516101208101825260008152600a602082015260289181019190915260a0606082018190526102806080830152610a009082015261280060c082015261a00060e082015262028000610100820152620000ef906012906009620003d2565b50604080516101008101825260008152600f6020820152600a918101919091526005606082018190526080820181905260a0820181905260c0820181905260e08201526200014290601b9060086200040a565b50601c805462ffffff191662190f0a1790553480156200016157600080fd5b5060405162005d7e38038062005d7e8339810160408190526200018491620004ce565b60008054600160a060020a0319908116600160a060020a038881169182178455600180548416898316178155601c8054630100000060b860020a03191663010000008a851602179055601d80548516888416179055601e8054851687841617905591845260056020908152604080862086905585547f5eff886ea0ce6ca488a3d6e336d6c0f75f46d19b42c06ce5ee98e42c96d256c78054919094169516851790925592845260079092529120805460ff1916821790555b600860ff821611620002dc5760008054600160a060020a03908116825260056020818152604080852060ff8716808752600b90910183528186208054600160ff199182168117909255875487168852858552838820838952600c0185528388208054821683179055875490961687529383528186209086526008019091529092208054909116909117905580620002d3816200053e565b9150506200023c565b50601c546000546040517fa1f09eeb000000000000000000000000000000000000000000000000000000008152306004820152600160a060020a0391821660248201526301000000909204169063a1f09eeb906044016020604051808303816000875af115801562000352573d6000803e3d6000fd5b505050506040513d601f19601f8201168201806040525081019062000378919062000585565b505050505050620005b0565b8260098101928215620003c0579160200282015b82811115620003c057825182906001605060020a031690559160200191906001019062000398565b50620003ce9291506200049a565b5090565b8260098101928215620003c0579160200282015b82811115620003c0578251829062ffffff16905591602001919060010190620003e6565b600183019183908215620003c05791602002820160005b838211156200046157835183826101000a81548160ff021916908360ff160217905550926020019260010160208160000104928301926001030262000421565b8015620004905782816101000a81549060ff021916905560010160208160000104928301926001030262000461565b5050620003ce9291505b5b80821115620003ce57600081556001016200049b565b8051600160a060020a0381168114620004c957600080fd5b919050565b600080600080600060a08688031215620004e757600080fd5b620004f286620004b1565b94506200050260208701620004b1565b93506200051260408701620004b1565b92506200052260608701620004b1565b91506200053260808701620004b1565b90509295509295909350565b600060ff821660ff81036200057c577f4e487b7100000000000000000000000000000000000000000000000000000000600052601160045260246000fd5b60010192915050565b6000602082840312156200059857600080fd5b81518015158114620005a957600080fd5b9392505050565b6157be80620005c06000396000f3fe608060405234801561001057600080fd5b506004361061020d576000357c0100000000000000000000000000000000000000000000000000000000900480637eff44281161012c578063be389d57116100bf578063d672b1ea1161008e578063d672b1ea14610624578063f0d38b2414610637578063fa16ab6c1461064a578063fd67c3241461066d57600080fd5b8063be389d571461053f578063c047599b14610552578063c6a8448f146105f2578063d2bd9a441461061257600080fd5b806399b956a0116100fb57806399b956a014610470578063ae60781614610503578063b4bbcb3e14610516578063b62638d71461051f57600080fd5b80637eff44281461040057806381705c3c1461043757806382bfefc81461044a578063925922a31461045d57600080fd5b8063497a4acb116101a45780636776a163116101735780636776a1631461038e5780636eca1cb2146103b75780637018a51b146103ca5780637d1af084146103ed57600080fd5b8063497a4acb146102e05780635288d9fb146102f3578063580c5699146103425780635ff30e851461034f57600080fd5b80633652c77f116101e05780633652c77f14610291578063373045af146102a457806338669522146102c55780633ccfd60b146102d857600080fd5b806313eade2d146102125780632471ec9d1461024257806329c704001461026257806336075abf1461027c575b600080fd5b6102256102203660046152ad565b610687565b604051600160a060020a0390911681526020015b60405180910390f35b6102556102503660046152e0565b61071b565b6040516102399190615302565b61026a600881565b60405160ff9091168152602001610239565b61028f61028a3660046152e0565b61078a565b005b61028f61029f3660046152e0565b61085d565b6102b76102b2366004615346565b610927565b604051908152602001610239565b61028f6102d33660046152e0565b61093e565b61028f610973565b6102b76102ee366004615346565b610a63565b6103326103013660046152ad565b600160a060020a0391909116600090815260056020908152604080832060ff9485168452600b019091529020541690565b6040519015158152602001610239565b601c5461026a9060ff1681565b61033261035d3660046152ad565b600160a060020a0391909116600090815260056020908152604080832060ff9485168452600c019091529020541690565b61022561039c366004615346565b600860205260009081526040902054600160a060020a031681565b61026a6103c5366004615346565b610a73565b6103326103d83660046152e0565b60076020526000908152604090205460ff1681565b601e5461022590600160a060020a031681565b61041361040e3660046152ad565b610a9d565b60408051825115158152602080840151908201529181015190820152606001610239565b6102256104453660046152ad565b610b1e565b60015461022590600160a060020a031681565b6102b761046b36600461535f565b610bac565b6104c661047e3660046152e0565b600560208190526000918252604090912080546001820154600283015460038401546004850154958501546006909501549395600160a060020a039093169491939092919087565b60408051978852600160a060020a039096166020880152948601939093526060850191909152608084015260a083015260c082015260e001610239565b601c5461026a9062010000900460ff1681565b6102b760045481565b61053261052d3660046152ad565b610bd0565b60405161023991906153c6565b61028f61054d3660046154f3565b611066565b6105ae6105603660046152e0565b60066020528060005260406000206000915090508060000154908060010154908060020154908060030154908060040154908060050154908060060154908060070154908060080154905089565b60408051998a5260208a0198909852968801959095526060870193909352608086019190915260a085015260c084015260e083015261010082015261012001610239565b6106056106003660046152ad565b611117565b604051610239919061550f565b601c5461026a90610100900460ff1681565b601d5461022590600160a060020a031681565b60005461022590600160a060020a031681565b600254600354610658919082565b60408051928352602083019190915201610239565b601c546102259063010000009004600160a060020a031681565b60005b600160a060020a03808416600090815260056020908152604080832060010154909316825282822060ff8087168452600c9091019091529190205416156106ef5750600160a060020a0380831660009081526005602052604090206001015416610715565b600160a060020a039283166000908152600560205260409020600101549092169161068a565b92915050565b600160a060020a03811660009081526005602090815260409182902060070180548351818402810184019094528084526060939283018282801561077e57602002820191906000526020600020905b81548152602001906001019080831161076a575b50505050509050919050565b600054600160a060020a031633146107ec5760405160e560020a62461bcd02815260206004820152600860248201527f47433a202149643100000000000000000000000000000000000000000000000060448201526064015b60405180910390fd5b60015b600860ff82161161085957600160a060020a038216600090815260056020908152604080832060ff85168452600b810183528184208054600160ff199182161790915560099091019092529091206003018054909116905580610851816155c2565b9150506107ef565b5050565b600054600160a060020a031633146108ba5760405160e560020a62461bcd02815260206004820152600860248201527f47433a202149643100000000000000000000000000000000000000000000000060448201526064016107e3565b60015b600860ff82161161085957600160a060020a038216600090815260056020908152604080832060ff85168452600c810183528184208054600160ff1991821617909155600a909101909252909120600801805490911690558061091f816155c2565b9150506108bd565b6012816009811061093757600080fd5b0154905081565b600154600a5461096691600160a060020a03169033903090610961906002615610565b6112f2565b6109703382611447565b50565b3360009081526007602052604090205460ff166109d55760405160e560020a62461bcd02815260206004820152601460248201527f47433a205573657273206e6f742065786973747300000000000000000000000060448201526064016107e3565b33600090815260056020526040902060020154610a375760405160e560020a62461bcd02815260206004820181905260248201527f47433a205573657273206469646e2774206861766520616e7920616d6f756e7460448201526064016107e3565b60015433600081815260056020526040902060020154610a6192600160a060020a031691906116cf565b565b6009816009811061093757600080fd5b601b8160088110610a8357600080fd5b60209182820401919006915054906101000a900460ff1681565b610ac3604051806060016040528060001515815260200160008152602001600081525090565b5060408051606081018252600160a060020a039390931660009081526005602090815282822060ff94851680845260089091018083528484208054909616151587526001860154838801529252526002909101549082015290565b60005b600160a060020a03808416600090815260056020908152604080832060010154909316825282822060ff8087168452600b909101909152919020541615610b865750600160a060020a0380831660009081526005602052604090206001015416610715565b600160a060020a0392831660009081526005602052604090206001015490921691610b21565b6000806064610bbe60ff851686615610565b610bc89190615627565b949350505050565b610c3f6040518061018001604052806000600160a060020a03168152602001606081526020016060815260200160608152602001606081526020016060815260200160608152602001606081526020016000151581526020016000815260200160008152602001600081525090565b6040805161018081018252600160a060020a0380861660009081526005602090815284822060ff8816808452600a909101808352868420805490951686529252908152600190910180548451818402810184019095528085529293828501939092830182828015610cd957602002820191906000526020600020905b8154600160a060020a03168152600190910190602001808311610cbb575b5050509183525050600160a060020a038516600090815260056020908152604080832060ff88168452600a018252918290206002018054835181840281018401909452808452938201939091830182828015610d5e57602002820191906000526020600020905b8154600160a060020a03168152600190910190602001808311610d40575b5050509183525050600160a060020a038516600090815260056020908152604080832060ff88168452600a018252918290206003018054835181840281018401909452808452938201939091830182828015610de357602002820191906000526020600020905b8154600160a060020a03168152600190910190602001808311610dc5575b5050509183525050600160a060020a038516600090815260056020908152604080832060ff88168452600a018252918290206004018054835181840281018401909452808452938201939091830182828015610e6857602002820191906000526020600020905b8154600160a060020a03168152600190910190602001808311610e4a575b5050509183525050600160a060020a038516600090815260056020818152604080842060ff89168552600a018252928390209091018054835181840281018401909452808452938201939091830182828015610eed57602002820191906000526020600020905b8154600160a060020a03168152600190910190602001808311610ecf575b5050509183525050600160a060020a038516600090815260056020908152604080832060ff88168452600a018252918290206006018054835181840281018401909452808452938201939091830182828015610f7257602002820191906000526020600020905b8154600160a060020a03168152600190910190602001808311610f54575b5050509183525050600160a060020a038516600090815260056020908152604080832060ff88168452600a018252918290206007018054835181840281018401909452808452938201939091830182828015610ff757602002820191906000526020600020905b8154600160a060020a03168152600190910190602001808311610fd9575b5050509183525050600160a060020a038516600090815260056020908152604080832060ff808916808652600a928301808652848720600881015490931615158689015260098301549488019490945291810154606087015293529052600b0154608090910152905092915050565b8060ff166001148061107b57508060ff166002145b6110ca5760405160e560020a62461bcd02815260206004820152601260248201527f47433a20496e76616c6964206d6174726978000000000000000000000000000060448201526064016107e3565b6001546110f890600160a060020a03163330600960ff87168181106110f1576110f16155e1565b01546112f2565b8060ff1660010361110d57610859338361181b565b6108593383611b2e565b6111626040518060e001604052806000600160a060020a0316815260200160608152602001606081526020016000151581526020016000815260200160008152602001600081525090565b6040805160e081018252600160a060020a0380861660009081526005602090815284822060ff881680845260099091018083528684208054909516865292529081526001909101805484518184028101840190955280855292938285019390928301828280156111fb57602002820191906000526020600020905b8154600160a060020a031681526001909101906020018083116111dd575b5050509183525050600160a060020a038516600090815260056020908152604080832060ff88168452600901825291829020600201805483518184028101840190945280845293820193909183018282801561128057602002820191906000526020600020905b8154600160a060020a03168152600190910190602001808311611262575b5050509183525050600160a060020a038516600090815260056020818152604080842060ff808a16808752600990920180855283872060038101549092161515858901526004820154938801939093529384015460608701529093529190915260060154608090910152905092915050565b60408051600160a060020a0385811660248301528481166044830152606480830185905283518084039091018152608490920183526020820180517bffffffffffffffffffffffffffffffffffffffffffffffffffffffff167f23b872dd0000000000000000000000000000000000000000000000000000000017905291516000928392908816916113849190615662565b6000604051808303816000865af19150503d80600081146113c1576040519150601f19603f3d011682016040523d82523d6000602084013e6113c6565b606091505b50915091508180156113f05750805115806113f05750808060200190518101906113f09190615691565b61143f5760405160e560020a62461bcd02815260206004820152600360248201527f535446000000000000000000000000000000000000000000000000000000000060448201526064016107e3565b505050505050565b600160a060020a03821660009081526007602052604090205460ff16156114b35760405160e560020a62461bcd02815260206004820152600f60248201527f47433a205573657220657869737473000000000000000000000000000000000060448201526064016107e3565b600160a060020a03811660009081526007602052604090205460ff1661151e5760405160e560020a62461bcd02815260206004820152601760248201527f47433a205265666572726572206e6f742065786973747300000000000000000060448201526064016107e3565b60048054600160a060020a03808516600081815260056020908152604080832095865560019586018054958916600160a060020a03199687168117825588548552600884528285208054881687179055948452805490951690931790935560079092528120805460ff191683179055825491929061159b836156b3565b9091555050600160a060020a03821660009081526005602052604081206004018054916115c7836156b3565b9091555050600160a060020a03828116600090815260056020908152604080832060045460079091018054600180820183559186528486200191909155938716835280832060ff86168452600b81018352818420805460ff199081168717909155600c909101909252822080549091169092179091556116478483610b1e565b9050611654848284611ee8565b60006116608584610687565b905061166d858285612556565b600160a060020a03858116600081815260056020908152604080832054948916808452928190205490519081529192917f309bb360e8b69c23937ccc5fb01f9aeeead1c95a99604e175113ff82f2b1723a910160405180910390a45050505050565b60408051600160a060020a038481166024830152604480830185905283518084039091018152606490920183526020820180517bffffffffffffffffffffffffffffffffffffffffffffffffffffffff167fa9059cbb0000000000000000000000000000000000000000000000000000000017905291516000928392908716916117599190615662565b6000604051808303816000865af19150503d8060008114611796576040519150601f19603f3d011682016040523d82523d6000602084013e61179b565b606091505b50915091508180156117c55750805115806117c55750808060200190518101906117c59190615691565b6118145760405160e560020a62461bcd02815260206004820152600260248201527f535400000000000000000000000000000000000000000000000000000000000060448201526064016107e3565b5050505050565b600160a060020a03821660009081526007602052604090205460ff166118865760405160e560020a62461bcd02815260206004820152601360248201527f47433a2052656769737465722066697273742e0000000000000000000000000060448201526064016107e3565b600160a060020a038216600090815260056020908152604080832060ff8086168552600b9091019092529091205416156119055760405160e560020a62461bcd02815260206004820152601360248201527f47433a204c6576656c206163746976617465640000000000000000000000000060448201526064016107e3565b60018160ff1611801561191c5750600860ff821611155b61196b5760405160e560020a62461bcd02815260206004820152601160248201527f47433a20496e76616c6964206c6576656c00000000000000000000000000000060448201526064016107e3565b600160a060020a0382166000908152600560205260408120600b01906119926001846156cc565b60ff9081168252602082019290925260400160002054166119f85760405160e560020a62461bcd02815260206004820152601b60248201527f47433a2050726576696f7573206c6576656c20696e616374697665000000000060448201526064016107e3565b600160a060020a038216600081815260056020818152604080842060ff87168552600b81018352908420805460ff1916600190811790915594845291905260090191611a4490846156cc565b60ff90811682526020820192909252604001600020600301541615611ab057600160a060020a038216600090815260056020526040812060090181611a8a6001856156cc565b60ff1681526020810191909152604001600020600301805460ff19169115159190911790555b6000611abc8383610b1e565b9050611ac9838284611ee8565b600160a060020a038381166000818152600560209081526040918290205482516001815260ff88169281019290925293851693917fee9a8973a264c9a442f0f0bd5e2ccf37905441f10bb47738152f77452909e2f291015b60405180910390a4505050565b600160a060020a03821660009081526007602052604090205460ff16611b995760405160e560020a62461bcd02815260206004820152601360248201527f47433a2052656769737465722066697273742e0000000000000000000000000060448201526064016107e3565b600160a060020a038216600090815260056020908152604080832060ff8086168552600c909101909252909120541615611c185760405160e560020a62461bcd02815260206004820152601360248201527f47433a204c6576656c206163746976617465640000000000000000000000000060448201526064016107e3565b60018160ff16118015611c2f5750600860ff821611155b611c7e5760405160e560020a62461bcd02815260206004820152601160248201527f47433a20496e76616c6964206c6576656c00000000000000000000000000000060448201526064016107e3565b600160a060020a0382166000908152600560205260408120600c0190611ca56001846156cc565b60ff908116825260208201929092526040016000205416611d0b5760405160e560020a62461bcd02815260206004820152601b60248201527f47433a2050726576696f7573206c6576656c20696e616374697665000000000060448201526064016107e3565b600160a060020a038216600081815260056020818152604080842060ff87168552600c81018352908420805460ff19166001908117909155948452919052600a0191611d5790846156cc565b60ff90811682526020820192909252604001600020600801541615611dc357600160a060020a0382166000908152600560205260408120600a0181611d9d6001856156cc565b60ff1681526020810191909152604001600020600801805460ff19169115159190911790555b600160a060020a038216600090815260056020526040812060080190611dea6001846156cc565b60ff908116825260208201929092526040016000205416158015611e4c5750600160a060020a038216600090815260056020526040812060080190611e306001846156cc565b60ff1660ff168152602001908152602001600020600201546003145b8015611eb657506012611e606001836156cc565b60ff1660098110611e7357611e736155e1565b0154600160a060020a038316600090815260056020526040812060080190611e9c6001856156cc565b60ff1660ff16815260200190815260200160002060010154145b15611ecf57611ecf82611eca6001846156cc565b613985565b6000611edb8383610687565b9050611ac9838284612556565b600160a060020a038216600090815260056020908152604080832060ff8086168552600b9091019092529091205416611f665760405160e560020a62461bcd02815260206004820152601b60248201527f47433a205265666572726572206c6576656c20696e616374697665000000000060448201526064016107e3565b600160a060020a038216600090815260056020908152604080832060ff85168452600901909152902060010154600311156121d857600160a060020a03828116600081815260056020908152604080832060ff8716845260090182528083206001908101805491820181558452828420018054600160a060020a031916958916959095179094559181526006909152908120805491612004836156b3565b9091555050600160a060020a038281166000818152600560209081526040808320805460ff88811680875260099093018552948390206001908101548451918252948101929092529290931690830152928616906000805160206157498339815191529060600160405180910390a4600160a060020a03838116600090815260056020908152604080832060ff8616845260090190915281208054600160a060020a031916858416908117909155905490911690036120cf576120ca8284600184613a8e565b505050565b600160a060020a03828116600090815260056020818152604080842060ff871680865260099182018452828620548716808752948452828620908652018252808420600201805460018082018355918652838620018054600160a060020a031916968a169690961790955582845260069091528220909201805491612153836156b3565b9091555050600160a060020a038381166000908152600560209081526040808320805460ff888116808752600990930185529483902060019081015484519182529481019290925292909316908301529183811691908716906000805160206157498339815191529060600160405180910390a46121d2848284613dda565b50505050565b600160a060020a03828116600081815260056020908152604080832060ff871684526009018252808320600201805460018082018355918552838520018054600160a060020a031916968a169690961790955592825260069052908120909101805491612244836156b3565b9091555050600160a060020a038216600090815260056020818152604080842060ff86168552600901909152822060019081018054929392909190811061228d5761228d6155e1565b6000918252602080832090910154600160a060020a039081168452838201949094526040928301822060ff8616808452600991820183528484206001908101549689168552600580855286862092865291909201909252928220909201805482906122fa576122fa6155e1565b6000918252602080832090910154600160a060020a03168352828101939093526040918201812060ff861682526009019092529020600101541180159061242a5750600160a060020a038216600090815260056020818152604080842060ff8616855260090190915282206001018054919291600290811061237e5761237e6155e1565b6000918252602080832090910154600160a060020a039081168452838201949094526040928301822060ff8616808452600991820183528484206001908101549689168552600580855286862092865291909201909252928220830180549193909181106123ee576123ee6155e1565b6000918252602080832090910154600160a060020a03168352828101939093526040918201812060ff8616825260090190925290206001015411155b156124415761243c83838360006141d1565b61254b565b600160a060020a038216600090815260056020818152604080842060ff86168552600901909152822060010180549192916002908110612483576124836155e1565b6000918252602080832090910154600160a060020a039081168452838201949094526040928301822060ff8616808452600991820183528484206001908101549689168552600580855286862092865291909201909252928220830180549193909181106124f3576124f36155e1565b6000918252602080832090910154600160a060020a03168352828101939093526040918201812060ff861682526009019092529020600101541161253e5761243c83838360016141d1565b61254b83838360026141d1565b6120ca838383613dda565b600160a060020a038216600090815260056020908152604080832060ff8086168552600c90910190925290912054166125d45760405160e560020a62461bcd02815260206004820152601b60248201527f47433a205265666572726572206c6576656c20696e616374697665000000000060448201526064016107e3565b600160a060020a03821660009081526005602052604081206003018054916125fb836156b3565b9091555050600160a060020a038216600090815260056020908152604080832060ff85168452600a01909152902060010154600311156126ac57600160a060020a038216600090815260056020908152604080832060ff851684526008019091529020600201546003106126a757600160a060020a038216600090815260056020908152604080832060ff8516845260080190915281206002018054916126a1836156b3565b91905055505b612734565b60128160ff16600981106126c2576126c26155e1565b0154600160a060020a038316600090815260056020908152604080832060ff861684526008019091529020600101541161273457600160a060020a038216600090815260056020908152604080832060ff85168452600801909152812060010180549161272e836156b3565b91905055505b600160a060020a038216600090815260056020908152604080832060ff80861685526008909101909252909120541615801561279c5750600160a060020a038216600090815260056020908152604080832060ff851684526008019091529020600201546003145b80156127ea575060128160ff16600981106127b9576127b96155e1565b0154600160a060020a038316600090815260056020908152604080832060ff86168452600801909152902060010154145b1561285a57600160a060020a0382166000908152600560205260408120600c01906128168360016156e5565b60ff908116825260208201929092526040016000205416801561283d575060ff8116600814155b8061284b575060ff81166008145b1561285a5761285a8282613985565b600160a060020a038216600090815260056020908152604080832060ff85168452600a0190915290206001015460031115612aa957600160a060020a03808316600081815260056020818152604080842060ff8816808652600a91820184528286206001908101805491820181558752848720018054988c16600160a060020a0319998a1681179091558652938352818520938552929092018152818320805490951684179094559181526006909252812060020180549161291b836156b3565b9091555050600160a060020a038281166000818152600560209081526040808320805460ff888116808752600a90930185529483902060010154835160028152948501929092529316828201525191938716916000805160206157498339815191529181900360600190a4600054600160a060020a03908116908316036129a9576120ca8284600284613a8e565b600160a060020a03828116600090815260056020818152604080842060ff8716808652600a91820184528286205487168087529484528286209086520182528084206002018054600181018255908552828520018054600160a060020a0319169589169590951790945581835260069052918120600301805491612a2c836156b3565b9091555050600160a060020a038381166000908152600560209081526040808320805460ff888116808752600a9093018552948390206001015483516002815294850192909252931690820152909183811691908716906000805160206157498339815191529060600160405180910390a46121d2848284614550565b600160a060020a038216600090815260056020908152604080832060ff85168452600a0190915290206002015460091115612cff57600160a060020a03808316600081815260056020818152604080842060ff8816808652600a91820184528286206002018054600181018255908752848720018054988c16600160a060020a0319998a16811790915586529383528185209385529290920181528183208054909516841790945591815260069092528120600301805491612b6a836156b3565b9091555050600160a060020a038281166000818152600560209081526040808320805460ff888116808752600a9093018552948390206002908101548451918252948101929092529290931690830152928616906000805160206157498339815191529060600160405180910390a4600054600160a060020a0390811690831603612bfc576120ca8284600284613a8e565b600160a060020a03828116600090815260056020818152604080842060ff8716808652600a91820184528286205487168087529484528286209086520182528084206003018054600181018255908552828520018054600160a060020a0319169589169590951790945581835260069052918120600401805491612c7f836156b3565b9091555050600160a060020a038381166000908152600560209081526040808320805460ff888116808752600a9093018552948390206002908101548451918252948101929092529290931690830152918381169190871690600080516020615749833981519152906060015b60405180910390a46121d2848484614550565b600160a060020a038216600090815260056020908152604080832060ff85168452600a01909152902060030154601b1115612f3f57600160a060020a03808316600081815260056020818152604080842060ff8816808652600a91820184528286206003018054600181018255908752848720018054988c16600160a060020a0319998a16811790915586529383528185209385529290920181528183208054909516841790945591815260069092528120600401805491612dc0836156b3565b9091555050600160a060020a038281166000818152600560209081526040808320805460ff888116808752600a90930185529483902060030154835160028152948501929092529316828201525191938716916000805160206157498339815191529181900360600190a4600054600160a060020a0390811690831603612e4e576120ca8284600284613a8e565b600160a060020a03828116600090815260056020818152604080842060ff8716808652600a9182018452828620548716808752858552838720918752910183528185206004018054600181018255908652838620018054600160a060020a031916968a16969096179095558484526006909152822001805491612ed0836156b3565b9091555050600160a060020a038381166000908152600560209081526040808320805460ff888116808752600a90930185529483902060030154835160028152948501929092529316908201529091838116919087169060008051602061574983398151915290606001612cec565b600160a060020a038216600090815260056020908152604080832060ff85168452600a019091529020600401546051111561317f57600160a060020a03808316600081815260056020818152604080842060ff8816808652600a91820184528286206004018054600181018255908752848720018054988c16600160a060020a0319998a168117909155865284845282862090865201825280842080549096168517909555928252600690925291822001805491612ffc836156b3565b9091555050600160a060020a038281166000818152600560209081526040808320805460ff888116808752600a90930185529483902060040154835160028152948501929092529316828201525191938716916000805160206157498339815191529181900360600190a4600054600160a060020a039081169083160361308a576120ca8284600284613a8e565b600160a060020a03828116600090815260056020818152604080842060ff8716808652600a9182018452828620548716808752858552838720918752910183528185209093018054600181018255908552828520018054600160a060020a03191695891695909517909455818352600690819052928220909201805491613110836156b3565b9091555050600160a060020a038381166000908152600560209081526040808320805460ff888116808752600a90930185529483902060040154835160028152948501929092529316908201529091838116919087169060008051602061574983398151915290606001612cec565b600160a060020a038216600090815260056020818152604080842060ff86168552600a01909152909120015460f311156133c757600160a060020a03808316600081815260056020818152604080842060ff8816808652600a918201845282862085018054600181018255908752848720018054988c16600160a060020a0319998a168117909155865293835281852093855292909201815281832080549095168417909455918152600692839052908120909101805491613240836156b3565b9091555050600160a060020a038281166000818152600560208181526040808420805460ff898116808852600a90930185529583902090940154825160028152938401919091529093168184015291519093871691600080516020615749833981519152919081900360600190a4600054600160a060020a03908116908316036132d1576120ca8284600284613a8e565b600160a060020a03828116600090815260056020818152604080842060ff8716808652600a918201845282862054871680875294845282862090865201825280842060069081018054600181018255908652838620018054600160a060020a031916968a1696909617909555828452939052918120600701805491613355836156b3565b9091555050600160a060020a038381166000908152600560208181526040808420805460ff898116808852600a90930185529583902090940154825160028152938401919091529093169281019290925291838116919087169060008051602061574983398151915290606001612cec565b600160a060020a038216600090815260056020908152604080832060ff85168452600a019091529020600601546102d9111561360757600160a060020a03808316600081815260056020818152604080842060ff8816808652600a918201845282862060069081018054600181018255908852858820018054998d16600160a060020a03199a8b168117909155875294845282862090865201825280842080549096168517909555928252909152908120600701805491613487836156b3565b9091555050600160a060020a038281166000818152600560209081526040808320805460ff888116808752600a90930185529483902060060154835160028152948501929092529316828201525191938716916000805160206157498339815191529181900360600190a4600054600160a060020a0390811690831603613515576120ca8284600284613a8e565b600160a060020a03828116600090815260056020818152604080842060ff8716808652600a91820184528286205487168087529484528286209086520182528084206007018054600181018255908552828520018054600160a060020a0319169589169590951790945581835260069052918120600801805491613598836156b3565b9091555050600160a060020a038381166000908152600560209081526040808320805460ff888116808752600a90930185529483902060060154835160028152948501929092529316908201529091838116919087169060008051602061574983398151915290606001612cec565b600160a060020a03828116600081815260056020908152604080832060ff87168452600a0182528083206007018054600181018255908452828420018054600160a060020a031916958916959095179094559181526006909152908120600801805491613673836156b3565b9091555050600160a060020a038216600090815260056020818152604080842060ff86168552600a0190915282206001908101805492939290919081106136bc576136bc6155e1565b6000918252602080832090910154600160a060020a039081168452838201949094526040928301822060ff8616808452600a9182018352848420600190810154968916855260058085528686209286529190920190925292822090920180548290613729576137296155e1565b6000918252602080832090910154600160a060020a03168352828101939093526040918201812060ff86168252600a01909252902060010154118015906138595750600160a060020a038216600090815260056020818152604080842060ff86168552600a019091528220600101805491929160029081106137ad576137ad6155e1565b6000918252602080832090910154600160a060020a039081168452838201949094526040928301822060ff8616808452600a918201835284842060019081015496891685526005808552868620928652919092019092529282208301805491939091811061381d5761381d6155e1565b6000918252602080832090910154600160a060020a03168352828101939093526040918201812060ff86168252600a0190925290206001015411155b156138705761386b8383836000614a6b565b61397a565b600160a060020a038216600090815260056020818152604080842060ff86168552600a019091528220600101805491929160029081106138b2576138b26155e1565b6000918252602080832090910154600160a060020a039081168452838201949094526040928301822060ff8616808452600a9182018352848420600190810154968916855260058085528686209286529190920190925292822083018054919390918110613922576139226155e1565b6000918252602080832090910154600160a060020a03168352828101939093526040918201812060ff86168252600a019092529020600101541161396d5761386b8383836001614a6b565b61397a8383836002614a6b565b6120ca838383614550565b601c546040517ff2ad717e00000000000000000000000000000000000000000000000000000000815260ff83166004820152600160a060020a03848116602483015263010000009092049091169063f2ad717e906044016020604051808303816000875af11580156139fb573d6000803e3d6000fd5b505050506040513d601f19601f82011682018060405250810190613a1f9190615691565b50600160a060020a038216600081815260056020818152604080842060ff8716808652600882018452828620805460ff19166001179055868652939092529054905191939290917f6a85537aeca98c031df87c8cf086ee68884ffb824fef1e3a200fa8ce13c704d39190a45050565b600080613a9c868685614eb4565b915091508360ff16600103613bd757600060098460ff1660098110613ac357613ac36155e1565b0154600154909150613adf90600160a060020a031684836116cf565b8060026000016000828254613af491906156fe565b9091555050600160a060020a03831660009081526005602081905260408220018054839290613b249084906156fe565b9091555050600160a060020a038316600090815260056020908152604080832060ff8816845260090190915281206006018054839290613b659084906156fe565b90915550508115613bd157600160a060020a0386811660008181526005602090815260409182902054825160ff808c1682528a169281019290925293871693917fcd156b64b5d926af834ed330796d71fc56eab1f344be4632dca5b9be1f69b0b7910160405180910390a45b5061143f565b60015b60078160ff1611613dd15760018160ff16118015613c065750600054600160a060020a03848116911614155b15613c3b57600160a060020a03928316600090815260056020908152604080832060ff88168452600a01909152902054909216915b8060ff16600103613c6457613c508385614f90565b613c5a83856150ce565b613c648385615167565b6000613cb260098660ff1660098110613c7f57613c7f6155e1565b0154601b8460ff1660088110613c9757613c976155e1565b602081049091015460ff601f9092166101000a900416610bac565b600154909150613ccc90600160a060020a031685836116cf565b8060026001016000828254613ce191906156fe565b9091555050600160a060020a03841660009081526005602052604081206006018054839290613d119084906156fe565b9091555050600160a060020a038416600090815260056020908152604080832060ff89168452600a019091528120600b018054839290613d529084906156fe565b90915550508215613dbe57600160a060020a0387811660008181526005602090815260409182902054825160ff808d1682528b169281019290925293881693917fcd156b64b5d926af834ed330796d71fc56eab1f344be4632dca5b9be1f69b0b7910160405180910390a45b5080613dc9816155c2565b915050613bda565b50505050505050565b600160a060020a038216600090815260056020908152604080832060ff8516845260099081019092529091206002015490811015613ecb5760058110158015613e24575060088111155b8015613e6b5750600160a060020a0383166000908152600560205260408120600b0190613e528460016156e5565b60ff908116825260208201929092526040016000205416155b15613ebe5760098260ff1660098110613e8657613e866155e1565b0154600160a060020a03841660009081526005602052604081206002018054909190613eb39084906156fe565b909155505050505050565b6121d28385600185613a8e565b6040805160008082526020808301808552600160a060020a03881683526005825284832060ff881684526009019091529290209051613f109260019092019190615206565b506040805160008082526020808301808552600160a060020a03881683526005825284832060ff881684526009019091529290209051613f569260029092019190615206565b50600160a060020a0383166000908152600560205260408120600b0190613f7e8460016156e5565b60ff908116825260208201929092526040016000205416158015613fa6575060ff8216600814155b15614092576009613fb88360016156e5565b60ff1660098110613fcb57613fcb6155e1565b0154600160a060020a0384166000908152600560205260409020600201541061405a5761400283613ffd8460016156e5565b61181b565b600961400f8360016156e5565b60ff1660098110614022576140226155e1565b0154600160a060020a0384166000908152600560205260408120600201805490919061404f908490615711565b909155506140929050565b600160a060020a038316600090815260056020908152604080832060ff861684526009019091529020600301805460ff191660011790555b600160a060020a038316600090815260056020908152604080832060ff8616845260090190915281206004018054916140ca836156b3565b9091555050600160a060020a03808416600081815260056020818152604080842060ff8916855260090190915282204291015554909116146141735760006141128484610b1e565b600160a060020a0385811660008181526005602052604090819020549051939450918416929091906000805160206157698339815191529061415a908a906001908a90615724565b60405180910390a461416d848285611ee8565b506121d2565b60008054600160a060020a031680825260056020526040808320549051600080516020615769833981519152906141b09089906001908990615724565b60405180910390a46000546121d290600160a060020a031685600185613a8e565b600160a060020a038316600090815260056020818152604080842060ff808816865260099091019092528320600101805492939290918516908110614218576142186155e1565b600091825260208083209190910154600160a060020a039081168452838201949094526040928301822060ff87811680855260099283018452858520600190810180548083018255908752858720018054600160a060020a0319168d8a16179055968a1685526005845285852090855290910190915291812090920180546006939285169081106142ab576142ab6155e1565b6000918252602080832090910154600160a060020a0316835282019290925260400181208054916142db836156b3565b9091555050600160a060020a0383166000908152600560209081526040808320805460ff808816865260099092019093529220600101805491929091908416908110614329576143296155e1565b6000918252602080832090910154600160a060020a0387811684526005808452604080862060ff808b168852600990910190955285206001908101805494841696938c16956000805160206157498339815191529592948b94939092918b16908110614397576143976155e1565b600091825260208083209190910154600160a060020a03168352828101939093526040918201812060ff8c81168352600990910184529082902060010154825195821686529381169285019290925291169082015260600160405180910390a4600160a060020a038084166000818152600560208181526040808420805460ff808b16875260099092019093529084206001908101805493978c16956000805160206157498339815191529592948b949192918b1690811061445b5761445b6155e1565b600091825260208083209190910154600160a060020a03168352828101939093526040918201812060ff8c81168352600990910184529082902060010154825195821686529381169285019290925291169082015260600160405180910390a4600160a060020a038316600090815260056020908152604080832060ff80871685526009909101909252909120600101805490918316908110614500576145006155e1565b6000918252602080832090910154600160a060020a03968716835260058252604080842060ff909616845260099095019091529290208054600160a060020a031916949092169390931790555050565b600160a060020a038216600090815260056020908152604080832060ff85168452600a0190915290206007015461088b81101561460a57610887811015801561459b575061088a8111155b80156145e25750600160a060020a0383166000908152600560205260408120600c01906145c98460016156e5565b60ff908116825260208201929092526040016000205416155b156145fd5760098260ff1660098110613e8657613e866155e1565b6121d28385600285613a8e565b6040805160008082526020808301808552600160a060020a03881683526005825284832060ff88168452600a01909152929020905161464f9260019092019190615206565b506040805160008082526020808301808552600160a060020a03881683526005825284832060ff88168452600a0190915292902090516146959260029092019190615206565b506040805160008082526020808301808552600160a060020a03881683526005825284832060ff88168452600a0190915292902090516146db9260039092019190615206565b506040805160008082526020808301808552600160a060020a03881683526005825284832060ff88168452600a0190915292902090516147219260049092019190615206565b506040805160008082526020808301808552600160a060020a0388168352600580835285842060ff89168552600a0190925293909120915161476893929091019190615206565b506040805160008082526020808301808552600160a060020a03881683526005825284832060ff88168452600a0190915292902090516147ae9260069092019190615206565b506040805160008082526020808301808552600160a060020a03881683526005825284832060ff88168452600a0190915292902090516147f49260079092019190615206565b50600160a060020a0383166000908152600560205260408120600c019061481c8460016156e5565b60ff908116825260208201929092526040016000205416158015614844575060ff8216600814155b156149305760096148568360016156e5565b60ff1660098110614869576148696155e1565b0154600160a060020a038416600090815260056020526040902060020154106148f8576148a08361489b8460016156e5565b611b2e565b60096148ad8360016156e5565b60ff16600981106148c0576148c06155e1565b0154600160a060020a038416600090815260056020526040812060020180549091906148ed908490615711565b909155506149309050565b600160a060020a038316600090815260056020908152604080832060ff86168452600a019091529020600801805460ff191660011790555b600160a060020a038316600090815260056020908152604080832060ff86168452600a019091528120600901805491614968836156b3565b9091555050600160a060020a03808416600081815260056020908152604080832060ff88168452600a9081019092528220429101555490911614614a0d5760006149b28484610687565b600160a060020a038581166000818152600560205260409081902054905193945091841692909190600080516020615769833981519152906149fa908a906002908a90615724565b60405180910390a461416d848285612556565b60008054600160a060020a03168082526005602052604080832054905160008051602061576983398151915290614a4a9089906002908990615724565b60405180910390a46000546121d290600160a060020a031685600285613a8e565b600160a060020a038316600090815260056020818152604080842060ff8088168652600a9091019092528320600101805492939290918516908110614ab257614ab26155e1565b600091825260208083209190910154600160a060020a039081168452838201949094526040928301822060ff8716808452600a90910182528383206001908101805491820181558452828420018054600160a060020a0319168a87161790559387168252600581528282209382526008909301909252902060020154600310614bc657600160a060020a038316600090815260056020818152604080842060ff8088168652600a9091019092528320600101805492939290918516908110614b7c57614b7c6155e1565b6000918252602080832090910154600160a060020a03168352828101939093526040918201812060ff861682526008019092528120600201805491614bc0836156b3565b91905055505b600160a060020a038316600090815260056020908152604080832060ff8087168552600a90910190925282206001018054600693928516908110614c0c57614c0c6155e1565b6000918252602080832090910154600160a060020a031683528201929092526040018120600201805491614c3f836156b3565b9091555050600160a060020a0383166000908152600560209081526040808320805460ff8088168652600a9092019093529220600101805491929091908416908110614c8d57614c8d6155e1565b6000918252602080832090910154600160a060020a0387811684526005808452604080862060ff808b168852600a9091019095528520600101805493831695928b1694600080516020615749833981519152946002948b949390929091908b16908110614cfc57614cfc6155e1565b600091825260208083209190910154600160a060020a03168352828101939093526040918201812060ff8c81168352600a90910184529082902060010154825195821686529381169285019290925291169082015260600160405180910390a4600160a060020a038084166000818152600560208181526040808420805460ff808b168752600a909201909352908420600101805492968b1694600080516020615749833981519152946002948b949193918b16908110614dbf57614dbf6155e1565b600091825260208083209190910154600160a060020a03168352828101939093526040918201812060ff8c81168352600a90910184529082902060010154825195821686529381169285019290925291169082015260600160405180910390a4600160a060020a038316600090815260056020908152604080832060ff8087168552600a909101909252909120600101805490918316908110614e6457614e646155e1565b6000918252602080832090910154600160a060020a03968716835260058252604080842060ff9096168452600a9095019091529290208054600160a060020a031916949092169390931790555050565b60008084815b600160a060020a038216600090815260056020908152604080832060ff808a168552600a909101909252909120600801541615614f8457600160a060020a038281166000818152600560209081526040918290205482516002815260ff8b1692810192909252938a1693917f1ccd2408d8d0da2e6aa5c854e3cc9f2ced9f5c8f409fc43689520e31377c88e6910160405180910390a450600160a060020a03908116600090815260056020908152604080832060ff88168452600a01909152902054166001614eba565b90969095509350505050565b6000614fbd60098360ff1660098110614fab57614fab6155e1565b0154601c54610100900460ff16610bac565b600154601c54919250614fe591600160a060020a0391821691630100000090910416836116cf565b601c546040517f580d2d0400000000000000000000000000000000000000000000000000000000815260ff84166004820152602481018390526301000000909104600160a060020a03169063580d2d04906044016020604051808303816000875af1158015615058573d6000803e3d6000fd5b505050506040513d601f19601f8201168201806040525081019061507c9190615691565b50600160a060020a03831660008181526005602090815260409182902054915184815260ff86169392917f49fff941510bffc17e13ae9fa43dd41e561e54bbc60ade7d24b8613797eab2f09101611b21565b60006150f660098360ff16600981106150e9576150e96155e1565b0154601c5460ff16610bac565b600154601d5491925061511691600160a060020a039182169116836116cf565b600160a060020a03831660008181526005602090815260409182902054915184815260ff86169392917fd154ea4f7a61dc44045520f717c2af2eff567e5e7fa0afdf6e37d8098c3d9e9d9101611b21565b600061519560098360ff1660098110615182576151826155e1565b0154601c5462010000900460ff16610bac565b600154601e549192506151b591600160a060020a039182169116836116cf565b600160a060020a03831660008181526005602090815260409182902054915184815260ff86169392917f980407712b789051c8a0a943ae67bf297fcaa15784740cf66cb4d6f4d26ceb619101611b21565b82805482825590600052602060002090810192821561525b579160200282015b8281111561525b5782518254600160a060020a031916600160a060020a03909116178255602090920191600190910190615226565b5061526792915061526b565b5090565b5b80821115615267576000815560010161526c565b8035600160a060020a038116811461529757600080fd5b919050565b803560ff8116811461529757600080fd5b600080604083850312156152c057600080fd5b6152c983615280565b91506152d76020840161529c565b90509250929050565b6000602082840312156152f257600080fd5b6152fb82615280565b9392505050565b6020808252825182820181905260009190848201906040850190845b8181101561533a5783518352928401929184019160010161531e565b50909695505050505050565b60006020828403121561535857600080fd5b5035919050565b6000806040838503121561537257600080fd5b823591506152d76020840161529c565b600081518084526020808501945080840160005b838110156153bb578151600160a060020a031687529582019590820190600101615396565b509495945050505050565b602081526153e0602082018351600160a060020a03169052565b600060208301516101808060408501526153fe6101a0850183615382565b91506040850151601f198086850301606087015261541c8483615382565b935060608701519150808685030160808701526154398483615382565b935060808701519150808685030160a08701526154568483615382565b935060a08701519150808685030160c08701526154738483615382565b935060c08701519150808685030160e08701526154908483615382565b935060e087015191506101008187860301818801526154af8584615382565b945080880151925050506101206154c98187018315159052565b86015161014086810191909152860151610160808701919091529095015193019290925250919050565b6000806040838503121561550657600080fd5b6152c98361529c565b60208152600160a060020a0382511660208201526000602083015160e0604084015261553f610100840182615382565b90506040840151601f1984830301606085015261555c8282615382565b915050606084015115156080840152608084015160a084015260a084015160c084015260c084015160e08401528091505092915050565b7f4e487b7100000000000000000000000000000000000000000000000000000000600052601160045260246000fd5b600060ff821660ff81036155d8576155d8615593565b60010192915050565b7f4e487b7100000000000000000000000000000000000000000000000000000000600052603260045260246000fd5b808202811582820484141761071557610715615593565b60008261565d577f4e487b7100000000000000000000000000000000000000000000000000000000600052601260045260246000fd5b500490565b6000825160005b818110156156835760208186018101518583015201615669565b506000920191825250919050565b6000602082840312156156a357600080fd5b815180151581146152fb57600080fd5b6000600182016156c5576156c5615593565b5060010190565b60ff828116828216039081111561071557610715615593565b60ff818116838216019081111561071557610715615593565b8082018082111561071557610715615593565b8181038181111561071557610715615593565b600160a060020a0393909316835260ff91821660208401521660408201526060019056fe3342cf255ba3c919b3b69725b935eb2d76592d44ce3cdbe12b9f19e31cc2844d1c89eceb2fa2c552b1f7a2341d78aa95a38a3135941d0a66927ed50a0c6848b2a2646970667358221220470cfe15c1c4845f962bd91d8627d8203fcf83f4c67768680108e34d1cf6fa2c64736f6c63430008140033",
  "immutableReferences": {},
  "source": "// SPDX-License-Identifier: MIT\r\npragma solidity ^0.8.10;\r\n\r\nimport \"@uniswap/v3-periphery/contracts/libraries/TransferHelper.sol\";\r\nimport \"./IGeniosClub.sol\";\r\nimport \"./IPool.sol\";\r\n\r\ncontract GeniosClub is IGeniosClub {\r\n  address public Id1;\r\n  address public TOKEN;\r\n\r\n  struct User {\r\n    uint256 Id;\r\n    address Ref;\r\n    uint256 Amount;\r\n    uint256 TotalTeam;\r\n    uint256 DirectRefs;\r\n    uint256 G3X2Earnings;\r\n    uint256 G3X7Earnings;\r\n    uint256[] DirectRefsIds;\r\n    mapping(uint8 => Rank) Ranks;\r\n    mapping(uint8 => G3X2) G3X2Matrix;\r\n    mapping(uint8 => G3X7) G3X7Matrix;\r\n    mapping(uint8 => bool) ActiveG3X2Levels;\r\n    mapping(uint8 => bool) ActiveG3X7Levels;\r\n  }\r\n\r\n  struct Rank {\r\n    bool IsActive;\r\n    uint256 TotalTeam;\r\n    uint256 DirectRefs;\r\n  }\r\n\r\n  struct G3X2 {\r\n    address CurrentRef;\r\n    address[] FirstLevelRefs;\r\n    address[] SecondLevelRefs;\r\n    bool Blocked;\r\n    uint256 ReinvestCount;\r\n    uint256 ReinvestTime;\r\n    uint256 Earnings;\r\n  }\r\n\r\n  struct G3X7 {\r\n    address CurrentRef;\r\n    address[] FirstLevelRefs;\r\n    address[] SecondLevelRefs;\r\n    address[] ThirdLevelRefs;\r\n    address[] FourthLevelRefs;\r\n    address[] FifthLevelRefs;\r\n    address[] SixthLevelRefs;\r\n    address[] SeventhLevelRefs;\r\n    bool Blocked;\r\n    uint256 ReinvestCount;\r\n    uint256 ReinvestTime;\r\n    uint256 Earnings;\r\n  }\r\n\r\n  struct Teams {\r\n    // G3x2\r\n    uint256 G3x2FirstTeam;\r\n    uint256 G3x2SecondTeam;\r\n    // G3x7\r\n    uint256 G3x7FirstTeam;\r\n    uint256 G3x7SecondTeam;\r\n    uint256 G3x7ThirdTeam;\r\n    uint256 G3x7FourthTeam;\r\n    uint256 G3x7FifthTeam;\r\n    uint256 G3x7SixthTeam;\r\n    uint256 G3x7SeventhTeam;\r\n  }\r\n\r\n  struct Plat {\r\n    uint256 G3X2TotalEarnings;\r\n    uint256 G3X7TotalEarnings;\r\n  }\r\n  Plat public Platform;\r\n\r\n  uint256 public LastUserId = 1;\r\n\r\n  mapping(address => User) public Users;\r\n  mapping(address => Teams) public UsersTeams;\r\n  mapping(address => bool) public IsUserExists;\r\n  mapping(uint256 => address) public IdToAddress;\r\n\r\n  uint8 public constant LAST_LEVEL = 8;\r\n  uint256[9] public LevelPrice = [\r\n    0,\r\n    2.5e18,\r\n    10e18,\r\n    40e18,\r\n    160e18,\r\n    640e18,\r\n    2560e18,\r\n    10240e18,\r\n    40960e18\r\n  ];\r\n  uint256[9] public RankReqTotalTeam = [\r\n    0,\r\n    10,\r\n    40,\r\n    160,\r\n    640,\r\n    2560,\r\n    10240,\r\n    40960,\r\n    163840\r\n  ];\r\n  uint8[8] public LevelPricePercentage = [0, 15, 10, 5, 5, 5, 5, 5];\r\n\r\n  uint8 public ClubComm = 10;\r\n  uint8 public RanksComm = 15;\r\n  uint8 public AcademyComm = 25;\r\n\r\n  address public PoolAddr;\r\n  address public ClubAddr;\r\n  address public AcademyAddr;\r\n\r\n  constructor(\r\n    address id1,\r\n    address tokenAddr,\r\n    address poolAddr,\r\n    address clubAddr,\r\n    address academyAddr\r\n  ) {\r\n    Id1 = id1;\r\n    TOKEN = tokenAddr;\r\n    PoolAddr = poolAddr;\r\n    ClubAddr = clubAddr;\r\n    AcademyAddr = academyAddr;\r\n\r\n    Users[Id1].Id = 0;\r\n    IdToAddress[0] = Id1;\r\n    IsUserExists[Id1] = true;\r\n    for (uint8 i = 1; i <= LAST_LEVEL; i++) {\r\n      Users[Id1].ActiveG3X2Levels[i] = true;\r\n      Users[Id1].ActiveG3X7Levels[i] = true;\r\n      Users[Id1].Ranks[i].IsActive = true;\r\n    }\r\n\r\n    IPool(PoolAddr).setContractAddr(address(this), Id1);\r\n  }\r\n\r\n  function RegistrationExt(address refAddr) external {\r\n    TransferHelper.safeTransferFrom(\r\n      TOKEN,\r\n      msg.sender,\r\n      address(this),\r\n      LevelPrice[1] * 2\r\n    );\r\n\r\n    _registration(msg.sender, refAddr);\r\n  }\r\n\r\n  function buyNewLevel(uint8 level, uint8 matrix) external {\r\n    require(matrix == 1 || matrix == 2, \"GC: Invalid matrix\");\r\n\r\n    TransferHelper.safeTransferFrom(\r\n      TOKEN,\r\n      msg.sender,\r\n      address(this),\r\n      LevelPrice[level]\r\n    );\r\n\r\n    if (matrix == 1) {\r\n      return _buyNewLevelG3X2(msg.sender, level);\r\n    }\r\n\r\n    _buyNewLevelG3X7(msg.sender, level);\r\n  }\r\n\r\n  function _registration(address userAddr, address refAddr) private {\r\n    require(!IsUserExists[userAddr], \"GC: User exists\");\r\n    require(IsUserExists[refAddr], \"GC: Referrer not exists\");\r\n\r\n    uint8 level = 1;\r\n\r\n    Users[userAddr].Id = LastUserId;\r\n    Users[userAddr].Ref = refAddr;\r\n\r\n    IdToAddress[LastUserId] = userAddr;\r\n    Users[userAddr].Ref = refAddr;\r\n    IsUserExists[userAddr] = true;\r\n    LastUserId++;\r\n\r\n    Users[refAddr].DirectRefs++;\r\n    Users[refAddr].DirectRefsIds.push(LastUserId);\r\n\r\n    Users[userAddr].ActiveG3X2Levels[level] = true;\r\n    Users[userAddr].ActiveG3X7Levels[level] = true;\r\n\r\n    address freeG3X2Ref = findFreeG3X2Referrer(userAddr, level);\r\n    updateG3X2Referrer(userAddr, freeG3X2Ref, level);\r\n\r\n    address freeG3X7Referrer = findFreeG3X7Referrer(userAddr, level);\r\n    updateG3X7Referrer(userAddr, freeG3X7Referrer, level);\r\n\r\n    emit Registration(userAddr, refAddr, Users[userAddr].Id, Users[refAddr].Id);\r\n  }\r\n\r\n  function _buyNewLevelG3X2(address userAddr, uint8 level) internal {\r\n    require(IsUserExists[userAddr], \"GC: Register first.\");\r\n\r\n    require(!Users[userAddr].ActiveG3X2Levels[level], \"GC: Level activated\");\r\n\r\n    require(level > 1 && level <= LAST_LEVEL, \"GC: Invalid level\");\r\n\r\n    require(\r\n      Users[userAddr].ActiveG3X2Levels[level - 1],\r\n      \"GC: Previous level inactive\"\r\n    );\r\n\r\n    Users[userAddr].ActiveG3X2Levels[level] = true;\r\n    if (Users[userAddr].G3X2Matrix[level - 1].Blocked) {\r\n      Users[userAddr].G3X2Matrix[level - 1].Blocked = false;\r\n    }\r\n\r\n    address freeG3X2Ref = findFreeG3X2Referrer(userAddr, level);\r\n    updateG3X2Referrer(userAddr, freeG3X2Ref, level);\r\n    emit Upgrade(Users[userAddr].Id, userAddr, freeG3X2Ref, 1, level);\r\n  }\r\n\r\n  function _buyNewLevelG3X7(address userAddr, uint8 level) internal {\r\n    require(IsUserExists[userAddr], \"GC: Register first.\");\r\n\r\n    require(!Users[userAddr].ActiveG3X7Levels[level], \"GC: Level activated\");\r\n\r\n    require(level > 1 && level <= LAST_LEVEL, \"GC: Invalid level\");\r\n\r\n    require(\r\n      Users[userAddr].ActiveG3X7Levels[level - 1],\r\n      \"GC: Previous level inactive\"\r\n    );\r\n\r\n    Users[userAddr].ActiveG3X7Levels[level] = true;\r\n    if (Users[userAddr].G3X7Matrix[level - 1].Blocked) {\r\n      Users[userAddr].G3X7Matrix[level - 1].Blocked = false;\r\n    }\r\n\r\n    if (\r\n      !Users[userAddr].Ranks[level - 1].IsActive &&\r\n      Users[userAddr].Ranks[level - 1].DirectRefs == 3 &&\r\n      Users[userAddr].Ranks[level - 1].TotalTeam == RankReqTotalTeam[level - 1]\r\n    ) {\r\n      _activeUserRank(userAddr, level - 1);\r\n    }\r\n\r\n    address freeG3X7Referrer = findFreeG3X7Referrer(userAddr, level);\r\n    updateG3X7Referrer(userAddr, freeG3X7Referrer, level);\r\n    emit Upgrade(Users[userAddr].Id, userAddr, freeG3X7Referrer, 1, level);\r\n  }\r\n\r\n  function updateG3X2Referrer(\r\n    address userAddr,\r\n    address refAddr,\r\n    uint8 level\r\n  ) private {\r\n    require(\r\n      Users[refAddr].ActiveG3X2Levels[level],\r\n      \"GC: Referrer level inactive\"\r\n    );\r\n\r\n    if (Users[refAddr].G3X2Matrix[level].FirstLevelRefs.length < 3) {\r\n      Users[refAddr].G3X2Matrix[level].FirstLevelRefs.push(userAddr);\r\n      UsersTeams[refAddr].G3x2FirstTeam++;\r\n\r\n      emit NewUserPlace(\r\n        userAddr,\r\n        refAddr,\r\n        Users[refAddr].Id,\r\n        1,\r\n        level,\r\n        uint8(Users[refAddr].G3X2Matrix[level].FirstLevelRefs.length)\r\n      );\r\n\r\n      //set current level\r\n      Users[userAddr].G3X2Matrix[level].CurrentRef = refAddr;\r\n\r\n      if (refAddr == Id1) {\r\n        return sendTokenDividends(refAddr, userAddr, 1, level);\r\n      }\r\n\r\n      address ref = Users[refAddr].G3X2Matrix[level].CurrentRef;\r\n      Users[ref].G3X2Matrix[level].SecondLevelRefs.push(userAddr);\r\n      UsersTeams[ref].G3x2SecondTeam++;\r\n\r\n      emit NewUserPlace(\r\n        userAddr,\r\n        ref,\r\n        Users[refAddr].Id,\r\n        1,\r\n        level,\r\n        uint8(Users[refAddr].G3X2Matrix[level].FirstLevelRefs.length)\r\n      );\r\n\r\n      return updateG3X2RefSecondLevel(userAddr, ref, level);\r\n    }\r\n\r\n    Users[refAddr].G3X2Matrix[level].SecondLevelRefs.push(userAddr);\r\n    UsersTeams[refAddr].G3x2SecondTeam++;\r\n\r\n    if (\r\n      (Users[Users[refAddr].G3X2Matrix[level].FirstLevelRefs[0]]\r\n        .G3X2Matrix[level]\r\n        .FirstLevelRefs\r\n        .length <=\r\n        Users[Users[refAddr].G3X2Matrix[level].FirstLevelRefs[1]]\r\n          .G3X2Matrix[level]\r\n          .FirstLevelRefs\r\n          .length) &&\r\n      (Users[Users[refAddr].G3X2Matrix[level].FirstLevelRefs[1]]\r\n        .G3X2Matrix[level]\r\n        .FirstLevelRefs\r\n        .length <=\r\n        Users[Users[refAddr].G3X2Matrix[level].FirstLevelRefs[2]]\r\n          .G3X2Matrix[level]\r\n          .FirstLevelRefs\r\n          .length)\r\n    ) {\r\n      updateG3X2(userAddr, refAddr, level, 0);\r\n    } else if (\r\n      Users[Users[refAddr].G3X2Matrix[level].FirstLevelRefs[1]]\r\n        .G3X2Matrix[level]\r\n        .FirstLevelRefs\r\n        .length <=\r\n      Users[Users[refAddr].G3X2Matrix[level].FirstLevelRefs[2]]\r\n        .G3X2Matrix[level]\r\n        .FirstLevelRefs\r\n        .length\r\n    ) {\r\n      updateG3X2(userAddr, refAddr, level, 1);\r\n    } else {\r\n      updateG3X2(userAddr, refAddr, level, 2);\r\n    }\r\n\r\n    updateG3X2RefSecondLevel(userAddr, refAddr, level);\r\n  }\r\n\r\n  function updateG3X2(\r\n    address userAddr,\r\n    address refAddr,\r\n    uint8 level,\r\n    uint8 x2\r\n  ) private {\r\n    Users[Users[refAddr].G3X2Matrix[level].FirstLevelRefs[x2]]\r\n      .G3X2Matrix[level]\r\n      .FirstLevelRefs\r\n      .push(userAddr);\r\n\r\n    UsersTeams[Users[refAddr].G3X2Matrix[level].FirstLevelRefs[x2]]\r\n      .G3x2FirstTeam++;\r\n\r\n    emit NewUserPlace(\r\n      userAddr,\r\n      Users[refAddr].G3X2Matrix[level].FirstLevelRefs[x2],\r\n      Users[refAddr].Id,\r\n      1,\r\n      level,\r\n      uint8(\r\n        Users[Users[refAddr].G3X2Matrix[level].FirstLevelRefs[x2]]\r\n          .G3X2Matrix[level]\r\n          .FirstLevelRefs\r\n          .length\r\n      )\r\n    );\r\n\r\n    emit NewUserPlace(\r\n      userAddr,\r\n      refAddr,\r\n      Users[refAddr].Id,\r\n      1,\r\n      level,\r\n      uint8(\r\n        Users[Users[refAddr].G3X2Matrix[level].FirstLevelRefs[x2]]\r\n          .G3X2Matrix[level]\r\n          .FirstLevelRefs\r\n          .length\r\n      )\r\n    );\r\n\r\n    //set current level\r\n    Users[userAddr].G3X2Matrix[level].CurrentRef = Users[refAddr]\r\n      .G3X2Matrix[level]\r\n      .FirstLevelRefs[x2];\r\n  }\r\n\r\n  function updateG3X2RefSecondLevel(\r\n    address userAddr,\r\n    address refAddr,\r\n    uint8 level\r\n  ) private {\r\n    uint256 len = Users[refAddr].G3X2Matrix[level].SecondLevelRefs.length;\r\n\r\n    if (len < 9) {\r\n      if (len >= 5 && len <= 8 && !Users[refAddr].ActiveG3X2Levels[level + 1]) {\r\n        Users[refAddr].Amount += LevelPrice[level];\r\n        return;\r\n      }\r\n\r\n      return sendTokenDividends(refAddr, userAddr, 1, level);\r\n    }\r\n\r\n    // recycle\r\n    Users[refAddr].G3X2Matrix[level].FirstLevelRefs = new address[](0);\r\n    Users[refAddr].G3X2Matrix[level].SecondLevelRefs = new address[](0);\r\n\r\n    if (!Users[refAddr].ActiveG3X2Levels[level + 1] && level != LAST_LEVEL) {\r\n      if (Users[refAddr].Amount >= LevelPrice[level + 1]) {\r\n        _buyNewLevelG3X2(refAddr, level + 1);\r\n        Users[refAddr].Amount -= LevelPrice[level + 1];\r\n      } else {\r\n        Users[refAddr].G3X2Matrix[level].Blocked = true;\r\n      }\r\n    }\r\n\r\n    Users[refAddr].G3X2Matrix[level].ReinvestCount++;\r\n    Users[refAddr].G3X2Matrix[level].ReinvestTime = block.timestamp;\r\n\r\n    if (refAddr != Id1) {\r\n      address freeRefAddr = findFreeG3X2Referrer(refAddr, level);\r\n      emit Reinvest(\r\n        Users[refAddr].Id,\r\n        refAddr,\r\n        freeRefAddr,\r\n        userAddr,\r\n        1,\r\n        level\r\n      );\r\n\r\n      updateG3X2Referrer(refAddr, freeRefAddr, level);\r\n    } else {\r\n      emit Reinvest(Users[Id1].Id, Id1, address(0), userAddr, 1, level);\r\n      sendTokenDividends(Id1, userAddr, 1, level);\r\n    }\r\n  }\r\n\r\n  function findFreeG3X2Referrer(\r\n    address userAddr,\r\n    uint8 level\r\n  ) public view returns (address refAddr) {\r\n    while (true) {\r\n      if (Users[Users[userAddr].Ref].ActiveG3X2Levels[level]) {\r\n        return Users[userAddr].Ref;\r\n      }\r\n      userAddr = Users[userAddr].Ref;\r\n    }\r\n  }\r\n\r\n  function _activeUserRank(address userAddr, uint8 level) private {\r\n    IPool(PoolAddr).AddUser(level, userAddr);\r\n    Users[userAddr].Ranks[level].IsActive = true;\r\n    emit RankEarners(Users[userAddr].Id, userAddr, level);\r\n  }\r\n\r\n  function updateG3X7Referrer(\r\n    address userAddr,\r\n    address refAddr,\r\n    uint8 level\r\n  ) private {\r\n    require(\r\n      Users[refAddr].ActiveG3X7Levels[level],\r\n      \"GC: Referrer level inactive\"\r\n    );\r\n\r\n    Users[refAddr].TotalTeam++;\r\n\r\n    if (Users[refAddr].G3X7Matrix[level].FirstLevelRefs.length < 3) {\r\n      if (Users[refAddr].Ranks[level].DirectRefs <= 3)\r\n        Users[refAddr].Ranks[level].DirectRefs++;\r\n    } else {\r\n      if (Users[refAddr].Ranks[level].TotalTeam <= RankReqTotalTeam[level])\r\n        Users[refAddr].Ranks[level].TotalTeam++;\r\n    }\r\n\r\n    if (\r\n      !Users[refAddr].Ranks[level].IsActive &&\r\n      Users[refAddr].Ranks[level].DirectRefs == 3 &&\r\n      Users[refAddr].Ranks[level].TotalTeam == RankReqTotalTeam[level]\r\n    ) {\r\n      if (\r\n        (Users[refAddr].ActiveG3X7Levels[level + 1] && level != LAST_LEVEL) ||\r\n        level == LAST_LEVEL\r\n      ) {\r\n        _activeUserRank(refAddr, level);\r\n      }\r\n    }\r\n\r\n    // Update the referrer's referrals based on the level\r\n    if (Users[refAddr].G3X7Matrix[level].FirstLevelRefs.length < 3) {\r\n      Users[refAddr].G3X7Matrix[level].FirstLevelRefs.push(userAddr);\r\n      Users[userAddr].G3X7Matrix[level].CurrentRef = refAddr;\r\n      UsersTeams[refAddr].G3x7FirstTeam++;\r\n\r\n      emit NewUserPlace(\r\n        userAddr,\r\n        refAddr,\r\n        Users[refAddr].Id,\r\n        2,\r\n        level,\r\n        uint8(Users[refAddr].G3X7Matrix[level].FirstLevelRefs.length)\r\n      );\r\n\r\n      if (refAddr == Id1) {\r\n        return sendTokenDividends(refAddr, userAddr, 2, level);\r\n      }\r\n\r\n      address ref_currentRef = Users[refAddr].G3X7Matrix[level].CurrentRef;\r\n      Users[ref_currentRef].G3X7Matrix[level].SecondLevelRefs.push(userAddr);\r\n      UsersTeams[ref_currentRef].G3x7SecondTeam++;\r\n\r\n      emit NewUserPlace(\r\n        userAddr,\r\n        ref_currentRef,\r\n        Users[refAddr].Id,\r\n        2,\r\n        level,\r\n        uint8(Users[refAddr].G3X7Matrix[level].FirstLevelRefs.length)\r\n      );\r\n\r\n      return updateG3X7RefLastLevel(userAddr, ref_currentRef, level);\r\n    } else if (Users[refAddr].G3X7Matrix[level].SecondLevelRefs.length < 9) {\r\n      Users[refAddr].G3X7Matrix[level].SecondLevelRefs.push(userAddr);\r\n      Users[userAddr].G3X7Matrix[level].CurrentRef = refAddr;\r\n      UsersTeams[refAddr].G3x7SecondTeam++;\r\n\r\n      emit NewUserPlace(\r\n        userAddr,\r\n        refAddr,\r\n        Users[refAddr].Id,\r\n        2,\r\n        level,\r\n        uint8(Users[refAddr].G3X7Matrix[level].SecondLevelRefs.length)\r\n      );\r\n\r\n      if (refAddr == Id1) {\r\n        return sendTokenDividends(refAddr, userAddr, 2, level);\r\n      }\r\n\r\n      address ref_currentRef = Users[refAddr].G3X7Matrix[level].CurrentRef;\r\n      Users[ref_currentRef].G3X7Matrix[level].ThirdLevelRefs.push(userAddr);\r\n      UsersTeams[ref_currentRef].G3x7ThirdTeam++;\r\n\r\n      emit NewUserPlace(\r\n        userAddr,\r\n        ref_currentRef,\r\n        Users[refAddr].Id,\r\n        2,\r\n        level,\r\n        uint8(Users[refAddr].G3X7Matrix[level].SecondLevelRefs.length)\r\n      );\r\n\r\n      return updateG3X7RefLastLevel(userAddr, refAddr, level);\r\n    } else if (Users[refAddr].G3X7Matrix[level].ThirdLevelRefs.length < 27) {\r\n      Users[refAddr].G3X7Matrix[level].ThirdLevelRefs.push(userAddr);\r\n      Users[userAddr].G3X7Matrix[level].CurrentRef = refAddr;\r\n      UsersTeams[refAddr].G3x7ThirdTeam++;\r\n\r\n      emit NewUserPlace(\r\n        userAddr,\r\n        refAddr,\r\n        Users[refAddr].Id,\r\n        2,\r\n        level,\r\n        uint8(Users[refAddr].G3X7Matrix[level].ThirdLevelRefs.length)\r\n      );\r\n\r\n      if (refAddr == Id1) {\r\n        return sendTokenDividends(refAddr, userAddr, 2, level);\r\n      }\r\n\r\n      address ref_currentRef = Users[refAddr].G3X7Matrix[level].CurrentRef;\r\n      Users[ref_currentRef].G3X7Matrix[level].FourthLevelRefs.push(userAddr);\r\n      UsersTeams[ref_currentRef].G3x7FourthTeam++;\r\n\r\n      emit NewUserPlace(\r\n        userAddr,\r\n        ref_currentRef,\r\n        Users[refAddr].Id,\r\n        2,\r\n        level,\r\n        uint8(Users[refAddr].G3X7Matrix[level].ThirdLevelRefs.length)\r\n      );\r\n\r\n      return updateG3X7RefLastLevel(userAddr, refAddr, level);\r\n    } else if (Users[refAddr].G3X7Matrix[level].FourthLevelRefs.length < 81) {\r\n      Users[refAddr].G3X7Matrix[level].FourthLevelRefs.push(userAddr);\r\n      Users[userAddr].G3X7Matrix[level].CurrentRef = refAddr;\r\n      UsersTeams[refAddr].G3x7FourthTeam++;\r\n\r\n      emit NewUserPlace(\r\n        userAddr,\r\n        refAddr,\r\n        Users[refAddr].Id,\r\n        2,\r\n        level,\r\n        uint8(Users[refAddr].G3X7Matrix[level].FourthLevelRefs.length)\r\n      );\r\n\r\n      if (refAddr == Id1) {\r\n        return sendTokenDividends(refAddr, userAddr, 2, level);\r\n      }\r\n\r\n      address ref_currentRef = Users[refAddr].G3X7Matrix[level].CurrentRef;\r\n      Users[ref_currentRef].G3X7Matrix[level].FifthLevelRefs.push(userAddr);\r\n      UsersTeams[ref_currentRef].G3x7FifthTeam++;\r\n\r\n      emit NewUserPlace(\r\n        userAddr,\r\n        ref_currentRef,\r\n        Users[refAddr].Id,\r\n        2,\r\n        level,\r\n        uint8(Users[refAddr].G3X7Matrix[level].FourthLevelRefs.length)\r\n      );\r\n\r\n      return updateG3X7RefLastLevel(userAddr, refAddr, level);\r\n    } else if (Users[refAddr].G3X7Matrix[level].FifthLevelRefs.length < 243) {\r\n      Users[refAddr].G3X7Matrix[level].FifthLevelRefs.push(userAddr);\r\n      Users[userAddr].G3X7Matrix[level].CurrentRef = refAddr;\r\n      UsersTeams[refAddr].G3x7FifthTeam++;\r\n\r\n      emit NewUserPlace(\r\n        userAddr,\r\n        refAddr,\r\n        Users[refAddr].Id,\r\n        2,\r\n        level,\r\n        uint8(Users[refAddr].G3X7Matrix[level].FifthLevelRefs.length)\r\n      );\r\n\r\n      if (refAddr == Id1) {\r\n        return sendTokenDividends(refAddr, userAddr, 2, level);\r\n      }\r\n\r\n      address ref_currentRef = Users[refAddr].G3X7Matrix[level].CurrentRef;\r\n      Users[ref_currentRef].G3X7Matrix[level].SixthLevelRefs.push(userAddr);\r\n      UsersTeams[ref_currentRef].G3x7SixthTeam++;\r\n\r\n      emit NewUserPlace(\r\n        userAddr,\r\n        ref_currentRef,\r\n        Users[refAddr].Id,\r\n        2,\r\n        level,\r\n        uint8(Users[refAddr].G3X7Matrix[level].FifthLevelRefs.length)\r\n      );\r\n\r\n      return updateG3X7RefLastLevel(userAddr, refAddr, level);\r\n    } else if (Users[refAddr].G3X7Matrix[level].SixthLevelRefs.length < 729) {\r\n      Users[refAddr].G3X7Matrix[level].SixthLevelRefs.push(userAddr);\r\n      Users[userAddr].G3X7Matrix[level].CurrentRef = refAddr;\r\n      UsersTeams[refAddr].G3x7SixthTeam++;\r\n\r\n      emit NewUserPlace(\r\n        userAddr,\r\n        refAddr,\r\n        Users[refAddr].Id,\r\n        2,\r\n        level,\r\n        uint8(Users[refAddr].G3X7Matrix[level].SixthLevelRefs.length)\r\n      );\r\n\r\n      if (refAddr == Id1) {\r\n        return sendTokenDividends(refAddr, userAddr, 2, level);\r\n      }\r\n\r\n      address ref_currentRef = Users[refAddr].G3X7Matrix[level].CurrentRef;\r\n      Users[ref_currentRef].G3X7Matrix[level].SeventhLevelRefs.push(userAddr);\r\n      UsersTeams[ref_currentRef].G3x7SeventhTeam++;\r\n\r\n      emit NewUserPlace(\r\n        userAddr,\r\n        ref_currentRef,\r\n        Users[refAddr].Id,\r\n        2,\r\n        level,\r\n        uint8(Users[refAddr].G3X7Matrix[level].SixthLevelRefs.length)\r\n      );\r\n\r\n      return updateG3X7RefLastLevel(userAddr, refAddr, level);\r\n    }\r\n\r\n    Users[refAddr].G3X7Matrix[level].SeventhLevelRefs.push(userAddr);\r\n    UsersTeams[refAddr].G3x7SeventhTeam++;\r\n\r\n    if (\r\n      (Users[Users[refAddr].G3X7Matrix[level].FirstLevelRefs[0]]\r\n        .G3X7Matrix[level]\r\n        .FirstLevelRefs\r\n        .length <=\r\n        Users[Users[refAddr].G3X7Matrix[level].FirstLevelRefs[1]]\r\n          .G3X7Matrix[level]\r\n          .FirstLevelRefs\r\n          .length) &&\r\n      (Users[Users[refAddr].G3X7Matrix[level].FirstLevelRefs[1]]\r\n        .G3X7Matrix[level]\r\n        .FirstLevelRefs\r\n        .length <=\r\n        Users[Users[refAddr].G3X7Matrix[level].FirstLevelRefs[2]]\r\n          .G3X7Matrix[level]\r\n          .FirstLevelRefs\r\n          .length)\r\n    ) {\r\n      updateG3X7(userAddr, refAddr, level, 0);\r\n    } else if (\r\n      Users[Users[refAddr].G3X7Matrix[level].FirstLevelRefs[1]]\r\n        .G3X7Matrix[level]\r\n        .FirstLevelRefs\r\n        .length <=\r\n      Users[Users[refAddr].G3X7Matrix[level].FirstLevelRefs[2]]\r\n        .G3X7Matrix[level]\r\n        .FirstLevelRefs\r\n        .length\r\n    ) {\r\n      updateG3X7(userAddr, refAddr, level, 1);\r\n    } else {\r\n      updateG3X7(userAddr, refAddr, level, 2);\r\n    }\r\n\r\n    updateG3X7RefLastLevel(userAddr, refAddr, level);\r\n  }\r\n\r\n  function updateG3X7(\r\n    address userAddr,\r\n    address refAddr,\r\n    uint8 level,\r\n    uint8 x2\r\n  ) private {\r\n    Users[Users[refAddr].G3X7Matrix[level].FirstLevelRefs[x2]]\r\n      .G3X7Matrix[level]\r\n      .FirstLevelRefs\r\n      .push(userAddr);\r\n\r\n    if (Users[refAddr].Ranks[level].DirectRefs <= 3)\r\n      Users[Users[refAddr].G3X7Matrix[level].FirstLevelRefs[x2]]\r\n        .Ranks[level]\r\n        .DirectRefs++;\r\n\r\n    UsersTeams[Users[refAddr].G3X7Matrix[level].FirstLevelRefs[x2]]\r\n      .G3x7FirstTeam++;\r\n\r\n    emit NewUserPlace(\r\n      userAddr,\r\n      Users[refAddr].G3X7Matrix[level].FirstLevelRefs[x2],\r\n      Users[refAddr].Id,\r\n      2,\r\n      level,\r\n      uint8(\r\n        Users[Users[refAddr].G3X7Matrix[level].FirstLevelRefs[x2]]\r\n          .G3X7Matrix[level]\r\n          .FirstLevelRefs\r\n          .length\r\n      )\r\n    );\r\n\r\n    emit NewUserPlace(\r\n      userAddr,\r\n      refAddr,\r\n      Users[refAddr].Id,\r\n      2,\r\n      level,\r\n      uint8(\r\n        Users[Users[refAddr].G3X7Matrix[level].FirstLevelRefs[x2]]\r\n          .G3X7Matrix[level]\r\n          .FirstLevelRefs\r\n          .length\r\n      )\r\n    );\r\n\r\n    //set current level\r\n    Users[userAddr].G3X7Matrix[level].CurrentRef = Users[refAddr]\r\n      .G3X7Matrix[level]\r\n      .FirstLevelRefs[x2];\r\n  }\r\n\r\n  function updateG3X7RefLastLevel(\r\n    address userAddr,\r\n    address refAddr,\r\n    uint8 level\r\n  ) private {\r\n    uint256 len = Users[refAddr].G3X7Matrix[level].SeventhLevelRefs.length;\r\n\r\n    if (len < 2187) {\r\n      if (\r\n        len >= 2183 &&\r\n        len <= 2186 &&\r\n        !Users[refAddr].ActiveG3X7Levels[level + 1]\r\n      ) {\r\n        // update needed\r\n        Users[refAddr].Amount += LevelPrice[level];\r\n        return;\r\n      }\r\n\r\n      return sendTokenDividends(refAddr, userAddr, 2, level);\r\n    }\r\n\r\n    // recycle\r\n    Users[refAddr].G3X7Matrix[level].FirstLevelRefs = new address[](0);\r\n    Users[refAddr].G3X7Matrix[level].SecondLevelRefs = new address[](0);\r\n    Users[refAddr].G3X7Matrix[level].ThirdLevelRefs = new address[](0);\r\n    Users[refAddr].G3X7Matrix[level].FourthLevelRefs = new address[](0);\r\n    Users[refAddr].G3X7Matrix[level].FifthLevelRefs = new address[](0);\r\n    Users[refAddr].G3X7Matrix[level].SixthLevelRefs = new address[](0);\r\n    Users[refAddr].G3X7Matrix[level].SeventhLevelRefs = new address[](0);\r\n\r\n    if (!Users[refAddr].ActiveG3X7Levels[level + 1] && level != LAST_LEVEL) {\r\n      if (Users[refAddr].Amount >= LevelPrice[level + 1]) {\r\n        _buyNewLevelG3X7(refAddr, level + 1);\r\n        Users[refAddr].Amount -= LevelPrice[level + 1];\r\n      } else {\r\n        Users[refAddr].G3X7Matrix[level].Blocked = true;\r\n      }\r\n    }\r\n\r\n    Users[refAddr].G3X7Matrix[level].ReinvestCount++;\r\n    Users[refAddr].G3X7Matrix[level].ReinvestTime = block.timestamp;\r\n\r\n    if (refAddr != Id1) {\r\n      address freeRefAddr = findFreeG3X7Referrer(refAddr, level);\r\n      emit Reinvest(\r\n        Users[refAddr].Id,\r\n        refAddr,\r\n        freeRefAddr,\r\n        userAddr,\r\n        2,\r\n        level\r\n      );\r\n\r\n      updateG3X7Referrer(refAddr, freeRefAddr, level);\r\n    } else {\r\n      emit Reinvest(Users[Id1].Id, Id1, address(0), userAddr, 2, level);\r\n      sendTokenDividends(Id1, userAddr, 2, level);\r\n    }\r\n  }\r\n\r\n  function findFreeG3X7Referrer(\r\n    address userAddr,\r\n    uint8 level\r\n  ) public view returns (address refAddr) {\r\n    while (true) {\r\n      if (Users[Users[userAddr].Ref].ActiveG3X7Levels[level]) {\r\n        return Users[userAddr].Ref;\r\n      }\r\n      userAddr = Users[userAddr].Ref;\r\n    }\r\n  }\r\n\r\n  function sendTokenDividends(\r\n    address refAddr,\r\n    address userAddr,\r\n    uint8 matrix,\r\n    uint8 level\r\n  ) private {\r\n    (address receiver, bool isExtraDividends) = findTokenReceiver(\r\n      refAddr,\r\n      userAddr,\r\n      level\r\n    );\r\n\r\n    if (matrix == 1) {\r\n      uint256 amount1 = LevelPrice[level];\r\n      TransferHelper.safeTransfer(TOKEN, receiver, amount1);\r\n\r\n      Platform.G3X2TotalEarnings += amount1;\r\n      Users[receiver].G3X2Earnings += amount1;\r\n      Users[receiver].G3X2Matrix[level].Earnings += amount1;\r\n\r\n      if (isExtraDividends)\r\n        emit SentExtraTokenDividends(\r\n          Users[userAddr].Id,\r\n          userAddr,\r\n          receiver,\r\n          matrix,\r\n          level\r\n        );\r\n    } else {\r\n      for (uint8 i = 1; i <= 7; i++) {\r\n        if (i > 1 && receiver != Id1)\r\n          receiver = Users[receiver].G3X7Matrix[level].CurrentRef;\r\n\r\n        if (i == 1) {\r\n          updateG3X7Pool(receiver, level);\r\n          updateG3X7Club(receiver, level);\r\n          updateG3X7Academy(receiver, level);\r\n        }\r\n\r\n        uint256 amount2 = calPerc(LevelPrice[level], LevelPricePercentage[i]);\r\n        TransferHelper.safeTransfer(TOKEN, receiver, amount2);\r\n\r\n        Platform.G3X7TotalEarnings += amount2;\r\n        Users[receiver].G3X7Earnings += amount2;\r\n        Users[receiver].G3X7Matrix[level].Earnings += amount2;\r\n\r\n        if (isExtraDividends)\r\n          emit SentExtraTokenDividends(\r\n            Users[userAddr].Id,\r\n            userAddr,\r\n            receiver,\r\n            matrix,\r\n            level\r\n          );\r\n      }\r\n    }\r\n  }\r\n\r\n  function findTokenReceiver(\r\n    address refAddr,\r\n    address userAddr,\r\n    uint8 level\r\n  ) private returns (address _receiver, bool _isExtraDividends) {\r\n    address receiver = refAddr;\r\n    bool isExtraDividends;\r\n\r\n    while (true) {\r\n      if (Users[receiver].G3X7Matrix[level].Blocked) {\r\n        emit MissedTokenReceive(\r\n          Users[receiver].Id,\r\n          receiver,\r\n          userAddr,\r\n          2,\r\n          level\r\n        );\r\n        isExtraDividends = true;\r\n        receiver = Users[receiver].G3X7Matrix[level].CurrentRef;\r\n      } else {\r\n        return (receiver, isExtraDividends);\r\n      }\r\n    }\r\n  }\r\n\r\n  function updateG3X7Pool(address userAddr, uint8 level) private {\r\n    uint256 commAmount = calPerc(LevelPrice[level], RanksComm);\r\n    TransferHelper.safeTransfer(TOKEN, PoolAddr, commAmount);\r\n    IPool(PoolAddr).DepositAmount(level, commAmount);\r\n    emit G3X7RankUpdated(Users[userAddr].Id, userAddr, level, commAmount);\r\n  }\r\n\r\n  function updateG3X7Club(address userAddr, uint8 level) private {\r\n    uint256 commAmount = calPerc(LevelPrice[level], ClubComm);\r\n    TransferHelper.safeTransfer(TOKEN, ClubAddr, commAmount);\r\n    emit G3X7ClubUpdated(Users[userAddr].Id, userAddr, level, commAmount);\r\n  }\r\n\r\n  function updateG3X7Academy(address userAddr, uint8 level) private {\r\n    uint256 commAmount = calPerc(LevelPrice[level], AcademyComm);\r\n    TransferHelper.safeTransfer(TOKEN, AcademyAddr, commAmount);\r\n    emit G3X7AcademyUpdated(Users[userAddr].Id, userAddr, level, commAmount);\r\n  }\r\n\r\n  function activateAllG3X2Levels(address userAddr) public {\r\n    require(Id1 == msg.sender, \"GC: !Id1\");\r\n\r\n    for (uint8 i = 1; i <= LAST_LEVEL; i++) {\r\n      Users[userAddr].ActiveG3X2Levels[i] = true;\r\n      Users[userAddr].G3X2Matrix[i].Blocked = false;\r\n    }\r\n  }\r\n\r\n  function activateAllG3X7Levels(address userAddr) public {\r\n    require(Id1 == msg.sender, \"GC: !Id1\");\r\n\r\n    for (uint8 i = 1; i <= LAST_LEVEL; i++) {\r\n      Users[userAddr].ActiveG3X7Levels[i] = true;\r\n      Users[userAddr].G3X7Matrix[i].Blocked = false;\r\n    }\r\n  }\r\n\r\n  function usersActiveG3X2Levels(\r\n    address userAddr,\r\n    uint8 level\r\n  ) public view returns (bool) {\r\n    return Users[userAddr].ActiveG3X2Levels[level];\r\n  }\r\n\r\n  function usersActiveG3X7Levels(\r\n    address userAddr,\r\n    uint8 level\r\n  ) public view returns (bool) {\r\n    return Users[userAddr].ActiveG3X7Levels[level];\r\n  }\r\n\r\n  function usersRanks(\r\n    address userAddr,\r\n    uint8 level\r\n  ) public view returns (Rank memory) {\r\n    return\r\n      Rank({\r\n        IsActive: Users[userAddr].Ranks[level].IsActive,\r\n        TotalTeam: Users[userAddr].Ranks[level].TotalTeam,\r\n        DirectRefs: Users[userAddr].Ranks[level].DirectRefs\r\n      });\r\n  }\r\n\r\n  function usersG3X2Matrix(\r\n    address userAddr,\r\n    uint8 level\r\n  ) public view returns (G3X2 memory) {\r\n    return\r\n      G3X2({\r\n        CurrentRef: Users[userAddr].G3X2Matrix[level].CurrentRef,\r\n        FirstLevelRefs: Users[userAddr].G3X2Matrix[level].FirstLevelRefs,\r\n        SecondLevelRefs: Users[userAddr].G3X2Matrix[level].SecondLevelRefs,\r\n        Blocked: Users[userAddr].G3X2Matrix[level].Blocked,\r\n        ReinvestCount: Users[userAddr].G3X2Matrix[level].ReinvestCount,\r\n        ReinvestTime: Users[userAddr].G3X2Matrix[level].ReinvestTime,\r\n        Earnings: Users[userAddr].G3X2Matrix[level].Earnings\r\n      });\r\n  }\r\n\r\n  function usersG3X7Matrix(\r\n    address userAddr,\r\n    uint8 level\r\n  ) public view returns (G3X7 memory) {\r\n    return\r\n      G3X7({\r\n        CurrentRef: Users[userAddr].G3X7Matrix[level].CurrentRef,\r\n        FirstLevelRefs: Users[userAddr].G3X7Matrix[level].FirstLevelRefs,\r\n        SecondLevelRefs: Users[userAddr].G3X7Matrix[level].SecondLevelRefs,\r\n        ThirdLevelRefs: Users[userAddr].G3X7Matrix[level].ThirdLevelRefs,\r\n        FourthLevelRefs: Users[userAddr].G3X7Matrix[level].FourthLevelRefs,\r\n        FifthLevelRefs: Users[userAddr].G3X7Matrix[level].FifthLevelRefs,\r\n        SixthLevelRefs: Users[userAddr].G3X7Matrix[level].SixthLevelRefs,\r\n        SeventhLevelRefs: Users[userAddr].G3X7Matrix[level].SeventhLevelRefs,\r\n        Blocked: Users[userAddr].G3X7Matrix[level].Blocked,\r\n        ReinvestCount: Users[userAddr].G3X7Matrix[level].ReinvestCount,\r\n        ReinvestTime: Users[userAddr].G3X7Matrix[level].ReinvestTime,\r\n        Earnings: Users[userAddr].G3X7Matrix[level].Earnings\r\n      });\r\n  }\r\n\r\n  function withdraw() public {\r\n    require(IsUserExists[msg.sender], \"GC: Users not exists\");\r\n    require(Users[msg.sender].Amount > 0, \"GC: Users didn't have any amount\");\r\n    TransferHelper.safeTransfer(TOKEN, msg.sender, Users[msg.sender].Amount);\r\n  }\r\n\r\n  function getDirectRefsIds(\r\n    address userAddr\r\n  ) public view returns (uint256[] memory refs) {\r\n    return Users[userAddr].DirectRefsIds;\r\n  }\r\n\r\n  function calPerc(uint256 tAmount, uint8 tPerc) public pure returns (uint256) {\r\n    uint256 perc = (tAmount * tPerc) / 100;\r\n    return perc;\r\n  }\r\n}\r\n",
  "sourcePath": "C:\\Users\\admin\\Documents\\GitHub\\genios-club\\truffle-test\\contracts\\GeniosClub.sol",
  "compiler": {
    "name": "solc",
    "version": "0.8.20+commit.a1b79de6.Emscripten.clang"
  },
  "schemaVersion": "3.4.14",
  "updatedAt": "2023-06-28T14:57:38.211Z",
  "networkType": "ethereum",
  "devdoc": {
    "kind": "dev",
    "methods": {},
    "version": 1
  },
  "userdoc": {
    "kind": "user",
    "methods": {},
    "version": 1
  }
}