{
  "contractName": "Pool",
  "abi": [
    {
      "inputs": [
        {
          "internalType": "address",
          "name": "tokenAddr",
          "type": "address"
        }
      ],
      "stateMutability": "nonpayable",
      "type": "constructor"
    },
    {
      "anonymous": false,
      "inputs": [
        {
          "indexed": true,
          "internalType": "uint8",
          "name": "level",
          "type": "uint8"
        },
        {
          "indexed": false,
          "internalType": "uint256",
          "name": "amount",
          "type": "uint256"
        },
        {
          "indexed": false,
          "internalType": "uint256",
          "name": "week",
          "type": "uint256"
        }
      ],
      "name": "Deposit",
      "type": "event"
    },
    {
      "anonymous": false,
      "inputs": [
        {
          "indexed": true,
          "internalType": "address",
          "name": "account",
          "type": "address"
        },
        {
          "indexed": true,
          "internalType": "uint8",
          "name": "level",
          "type": "uint8"
        },
        {
          "indexed": false,
          "internalType": "uint256",
          "name": "week",
          "type": "uint256"
        }
      ],
      "name": "UserAdded",
      "type": "event"
    },
    {
      "anonymous": false,
      "inputs": [
        {
          "indexed": true,
          "internalType": "address",
          "name": "account",
          "type": "address"
        },
        {
          "indexed": false,
          "internalType": "uint256",
          "name": "amount",
          "type": "uint256"
        },
        {
          "indexed": false,
          "internalType": "uint256",
          "name": "week",
          "type": "uint256"
        }
      ],
      "name": "Withdraw",
      "type": "event"
    },
    {
      "inputs": [],
      "name": "CONTRACT",
      "outputs": [
        {
          "internalType": "address",
          "name": "",
          "type": "address"
        }
      ],
      "stateMutability": "view",
      "type": "function",
      "constant": true
    },
    {
      "inputs": [],
      "name": "CurrentWeek",
      "outputs": [
        {
          "internalType": "uint256",
          "name": "",
          "type": "uint256"
        }
      ],
      "stateMutability": "view",
      "type": "function",
      "constant": true
    },
    {
      "inputs": [
        {
          "internalType": "address",
          "name": "",
          "type": "address"
        },
        {
          "internalType": "uint8",
          "name": "",
          "type": "uint8"
        }
      ],
      "name": "IsUserExists",
      "outputs": [
        {
          "internalType": "bool",
          "name": "",
          "type": "bool"
        }
      ],
      "stateMutability": "view",
      "type": "function",
      "constant": true
    },
    {
      "inputs": [],
      "name": "LastDepositWeek",
      "outputs": [
        {
          "internalType": "uint256",
          "name": "",
          "type": "uint256"
        }
      ],
      "stateMutability": "view",
      "type": "function",
      "constant": true
    },
    {
      "inputs": [],
      "name": "LastWeekStart",
      "outputs": [
        {
          "internalType": "uint256",
          "name": "",
          "type": "uint256"
        }
      ],
      "stateMutability": "view",
      "type": "function",
      "constant": true
    },
    {
      "inputs": [],
      "name": "NextWeekStart",
      "outputs": [
        {
          "internalType": "uint256",
          "name": "",
          "type": "uint256"
        }
      ],
      "stateMutability": "view",
      "type": "function",
      "constant": true
    },
    {
      "inputs": [],
      "name": "TOKEN",
      "outputs": [
        {
          "internalType": "address",
          "name": "",
          "type": "address"
        }
      ],
      "stateMutability": "view",
      "type": "function",
      "constant": true
    },
    {
      "inputs": [],
      "name": "TotalAmount",
      "outputs": [
        {
          "internalType": "uint256",
          "name": "",
          "type": "uint256"
        }
      ],
      "stateMutability": "view",
      "type": "function",
      "constant": true
    },
    {
      "inputs": [],
      "name": "TotalDepositWeek",
      "outputs": [
        {
          "internalType": "uint256",
          "name": "",
          "type": "uint256"
        }
      ],
      "stateMutability": "view",
      "type": "function",
      "constant": true
    },
    {
      "inputs": [],
      "name": "TotalRanksEarnings",
      "outputs": [
        {
          "internalType": "uint256",
          "name": "",
          "type": "uint256"
        }
      ],
      "stateMutability": "view",
      "type": "function",
      "constant": true
    },
    {
      "inputs": [
        {
          "internalType": "address",
          "name": "",
          "type": "address"
        },
        {
          "internalType": "uint8",
          "name": "",
          "type": "uint8"
        }
      ],
      "name": "User",
      "outputs": [
        {
          "internalType": "uint256",
          "name": "LastWithdrawWeek",
          "type": "uint256"
        },
        {
          "internalType": "uint256",
          "name": "LastWithdrawAmount",
          "type": "uint256"
        },
        {
          "internalType": "uint256",
          "name": "TotalWithdrawAmount",
          "type": "uint256"
        }
      ],
      "stateMutability": "view",
      "type": "function",
      "constant": true
    },
    {
      "inputs": [
        {
          "internalType": "address",
          "name": "",
          "type": "address"
        }
      ],
      "name": "UserRanksEarnings",
      "outputs": [
        {
          "internalType": "uint256",
          "name": "",
          "type": "uint256"
        }
      ],
      "stateMutability": "view",
      "type": "function",
      "constant": true
    },
    {
      "inputs": [
        {
          "internalType": "uint256",
          "name": "",
          "type": "uint256"
        },
        {
          "internalType": "uint8",
          "name": "",
          "type": "uint8"
        }
      ],
      "name": "Week",
      "outputs": [
        {
          "internalType": "uint256",
          "name": "TUsers",
          "type": "uint256"
        },
        {
          "internalType": "uint256",
          "name": "TAmount",
          "type": "uint256"
        }
      ],
      "stateMutability": "view",
      "type": "function",
      "constant": true
    },
    {
      "inputs": [
        {
          "internalType": "address",
          "name": "contAddr",
          "type": "address"
        },
        {
          "internalType": "address",
          "name": "userAddr",
          "type": "address"
        }
      ],
      "name": "setContractAddr",
      "outputs": [
        {
          "internalType": "bool",
          "name": "",
          "type": "bool"
        }
      ],
      "stateMutability": "nonpayable",
      "type": "function"
    },
    {
      "inputs": [
        {
          "internalType": "uint8",
          "name": "level",
          "type": "uint8"
        },
        {
          "internalType": "uint256",
          "name": "amount",
          "type": "uint256"
        }
      ],
      "name": "DepositAmount",
      "outputs": [
        {
          "internalType": "bool",
          "name": "",
          "type": "bool"
        }
      ],
      "stateMutability": "nonpayable",
      "type": "function"
    },
    {
      "inputs": [
        {
          "internalType": "uint8",
          "name": "level",
          "type": "uint8"
        },
        {
          "internalType": "address",
          "name": "userAddr",
          "type": "address"
        }
      ],
      "name": "AddUser",
      "outputs": [
        {
          "internalType": "bool",
          "name": "",
          "type": "bool"
        }
      ],
      "stateMutability": "nonpayable",
      "type": "function"
    },
    {
      "inputs": [
        {
          "internalType": "uint8",
          "name": "level",
          "type": "uint8"
        },
        {
          "internalType": "address",
          "name": "userAddr",
          "type": "address"
        }
      ],
      "name": "WithdrawAmount",
      "outputs": [
        {
          "internalType": "bool",
          "name": "",
          "type": "bool"
        }
      ],
      "stateMutability": "nonpayable",
      "type": "function"
    },
    {
      "inputs": [
        {
          "internalType": "uint8",
          "name": "level",
          "type": "uint8"
        },
        {
          "internalType": "address",
          "name": "userAddr",
          "type": "address"
        }
      ],
      "name": "CheckWithdrawAmount",
      "outputs": [
        {
          "internalType": "uint256",
          "name": "lastWeekAmount",
          "type": "uint256"
        },
        {
          "internalType": "uint256",
          "name": "currentWeekAmount",
          "type": "uint256"
        }
      ],
      "stateMutability": "view",
      "type": "function",
      "constant": true
    },
    {
      "inputs": [
        {
          "internalType": "uint8",
          "name": "level",
          "type": "uint8"
        },
        {
          "internalType": "address",
          "name": "userAddr",
          "type": "address"
        }
      ],
      "name": "IsTimeToWithdraw",
      "outputs": [
        {
          "internalType": "bool",
          "name": "",
          "type": "bool"
        }
      ],
      "stateMutability": "view",
      "type": "function",
      "constant": true
    }
  ],
  "bytecode": "0x608060405234801561001057600080fd5b5060405161114238038061114283398101604081905261002f91610079565b600c8054600160a060020a031916600160a060020a038316179055600180554260028190556100619062093a806100a9565b600355506000600481905560058190556007556100e9565b60006020828403121561008b57600080fd5b8151600160a060020a03811681146100a257600080fd5b9392505050565b808201808211156100e3577f4e487b7100000000000000000000000000000000000000000000000000000000600052601160045260246000fd5b92915050565b61104a806100f86000396000f3fe608060405234801561001057600080fd5b506004361061013e576000357c01000000000000000000000000000000000000000000000000000000009004806379ee86ae116100ca578063c0790a601161008e578063c0790a60146102fe578063c33ef70114610307578063c4bf232f14610310578063f2ad717e14610319578063fc833ac61461032c57600080fd5b806379ee86ae146102a55780637eb9f571146102ae57806382bfefc8146102b7578063a1f09eeb146102e2578063a5e09259146102f557600080fd5b806343ba35241161011157806343ba3524146101f35780634cf8aaab14610248578063580d2d041461025157806364bb60bd1461026457806368e05ccc1461029257600080fd5b8063020d2ca11461014357806303e1e40e14610176578063219f0f70146101995780634333556e146101ac575b600080fd5b610163610151366004610deb565b60086020526000908152604090205481565b6040519081526020015b60405180910390f35b610189610184366004610e1e565b61033f565b604051901515815260200161016d565b6101896101a7366004610e1e565b610394565b6101de6101ba366004610e51565b600b6020908152600092835260408084209091529082529020805460019091015482565b6040805192835260208301919091520161016d565b61022d610201366004610e74565b600960209081526000928352604080842090915290825290208054600182015460029092015490919083565b6040805193845260208401929092529082015260600161016d565b61016360025481565b61018961025f366004610e9e565b6106c6565b610189610272366004610e74565b600a60209081526000928352604080842090915290825290205460ff1681565b6101de6102a0366004610e1e565b6107e6565b61016360035481565b61016360055481565b600c546102ca90600160a060020a031681565b604051600160a060020a03909116815260200161016d565b6101896102f0366004610ec8565b6108de565b61016360065481565b61016360045481565b61016360075481565b61016360015481565b610189610327366004610e1e565b6109e7565b600d546102ca90600160a060020a031681565b600754600160a060020a038216600090815260096020908152604080832060ff87168452909152812054909111156103795750600161038e565b600354421061038a5750600161038e565b5060005b92915050565b6000805460ff16156103f05760405160e560020a62461bcd02815260206004820152600e60248201527f4e6f2072652d656e7472616e637900000000000000000000000000000000000060448201526064015b60405180910390fd5b6000805460ff19166001178155600160a060020a0383168152600a6020908152604080832060ff8781168552925290912054166104725760405160e560020a62461bcd02815260206004820152601560248201527f504f4f4c3a2055736572206e6f7420657869737473000000000000000000000060448201526064016103e7565b60035442106104845761048483610b6d565b600754600160a060020a038316600090815260096020908152604080832060ff88168452909152902054106104fe5760405160e560020a62461bcd02815260206004820152601e60248201527f504f4f4c3a20496e76616c69642074696d6520746f205769746864726177000060448201526064016103e7565b600160a060020a038216600090815260096020908152604080832060ff871684529091528120545b60075481101561057c576000818152600b6020908152604080832060ff891684529091529020805460019091015461055e9190610f13565b6105689083610f4e565b91508061057481610f61565b915050610526565b50806005600082825461058f9190610f7a565b9250508190555080600660008282546105a89190610f4e565b9091555050600754600160a060020a038416600090815260086020526040812080549091906105d8908490610f4e565b9091555050600160a060020a038316600090815260096020908152604080832060ff88168452909152812060018101839055600201805483929061061d908490610f4e565b9091555050600754600160a060020a03808516600090815260096020908152604080832060ff8a168452909152902091909155600c5461065f91168483610c83565b82600160a060020a03167ff279e6a1f5e320cca91135676d9cb6e44ca8a08c0b88342bcdb1144f6511b56882600160075461069a9190610f7a565b6040805192835260208301919091520160405180910390a250506000805460ff19169055506001919050565b600d54600090600160a060020a031633146107265760405160e560020a62461bcd02815260206004820152601260248201527f504f4f4c3a204e6f7420636f6e7472616374000000000000000000000000000060448201526064016103e7565b816000036107365750600061038e565b60035442106107485761074883610b6d565b816005600082825461075a9190610f4e565b90915550506007546000908152600b6020908152604080832060ff8716845290915281206001018054849290610791908490610f4e565b909155505060075460405160ff8516917fd42bb066022bc335a7416ea93e58076c615424965740cdeb2263132458823b18916107d591868252602082015260400190565b60405180910390a250600192915050565b600160a060020a0381166000908152600a6020908152604080832060ff8087168552925282205482911615610820575060009050806108d7565b600160a060020a038316600090815260096020908152604080832060ff881684529091528120545b60075481101561089e576000818152600b6020908152604080832060ff8a168452909152902080546001909101546108809190610f13565b61088a9083610f4e565b91508061089681610f61565b915050610848565b506007546000908152600b6020908152604080832060ff891684529091529020805460019091015482916108d191610f13565b92509250505b9250929050565b600d54600090600160a060020a0316156108f757600080fd5b600d805473ffffffffffffffffffffffffffffffffffffffff1916600160a060020a03851617905560015b60088160ff16116109dd576040805160608101825260008082526020808301828152838501838152600160a060020a0389168085526009845286852060ff89168087529085528786209651875592516001808801919091559151600290960195909555938352600a82528483208184528252848320805460ff19169094179093556007548252600b8152838220928252919091529081208054916109c583610f61565b919050555080806109d590610f8d565b915050610922565b5060019392505050565b600d54600090600160a060020a03163314610a475760405160e560020a62461bcd02815260206004820152601260248201527f504f4f4c3a204e6f7420636f6e7472616374000000000000000000000000000060448201526064016103e7565b600160a060020a0382166000908152600a6020908152604080832060ff80881685529252909120541615610a7d5750600061038e565b6040805160608101825260078054825260006020808401828152848601838152600160a060020a0389168085526009845287852060ff8c168087529085528886209751885592516001808901919091559151600290970196909655948352600a82528583208184528252858320805460ff191690951790945591548152600b8252838120928152919052908120805491610b1683610f61565b91905055508260ff1682600160a060020a03167ff35addd78a9e6921f9cec55fd935989f180980597c8bd0c05bba14c56dbb4fb7600754604051610b5c91815260200190565b60405180910390a350600192915050565b600062093a8060025442610b819190610f7a565b610b8b9190610f13565b90508060016000828254610b9f9190610f4e565b90915550610bb290508162093a80610fac565b60026000828254610bc39190610f4e565b90915550610bd690508162093a80610fac565b60036000828254610be79190610f4e565b909155505060015460045414610c7f57600180546004556040805180820182526007546000818152600b602081815285832060ff8a16845281529482205484529383018190529193610c399190610f4e565b81526020808201929092526040908101600090812060ff8716825283529081208351815592909101516001909201919091556007805491610c7983610f61565b91905055505b5050565b60408051600160a060020a038481166024830152604480830185905283518084039091018152606490920183526020820180517bffffffffffffffffffffffffffffffffffffffffffffffffffffffff167fa9059cbb000000000000000000000000000000000000000000000000000000001790529151600092839290871691610d0d9190610fc3565b6000604051808303816000865af19150503d8060008114610d4a576040519150601f19603f3d011682016040523d82523d6000602084013e610d4f565b606091505b5091509150818015610d79575080511580610d79575080806020019051810190610d799190610ff2565b610dc85760405160e560020a62461bcd02815260206004820152600260248201527f535400000000000000000000000000000000000000000000000000000000000060448201526064016103e7565b5050505050565b8035600160a060020a0381168114610de657600080fd5b919050565b600060208284031215610dfd57600080fd5b610e0682610dcf565b9392505050565b803560ff81168114610de657600080fd5b60008060408385031215610e3157600080fd5b610e3a83610e0d565b9150610e4860208401610dcf565b90509250929050565b60008060408385031215610e6457600080fd5b82359150610e4860208401610e0d565b60008060408385031215610e8757600080fd5b610e9083610dcf565b9150610e4860208401610e0d565b60008060408385031215610eb157600080fd5b610eba83610e0d565b946020939093013593505050565b60008060408385031215610edb57600080fd5b610e3a83610dcf565b7f4e487b7100000000000000000000000000000000000000000000000000000000600052601160045260246000fd5b600082610f49577f4e487b7100000000000000000000000000000000000000000000000000000000600052601260045260246000fd5b500490565b8082018082111561038e5761038e610ee4565b600060018201610f7357610f73610ee4565b5060010190565b8181038181111561038e5761038e610ee4565b600060ff821660ff8103610fa357610fa3610ee4565b60010192915050565b808202811582820484141761038e5761038e610ee4565b6000825160005b81811015610fe45760208186018101518583015201610fca565b506000920191825250919050565b60006020828403121561100457600080fd5b81518015158114610e0657600080fdfea26469706673582212204f0fe809f38108da95932b261e13335c51308cf05ec3427dfc48d3081bd1886664736f6c63430008140033",
  "immutableReferences": {},
  "source": "// SPDX-License-Identifier: MIT\r\npragma solidity ^0.8.10;\r\n\r\nimport \"@uniswap/v3-periphery/contracts/libraries/TransferHelper.sol\";\r\nimport \"./IPool.sol\";\r\n\r\ncontract Pool is IPool {\r\n  struct WeekData {\r\n    uint256 TUsers;\r\n    uint256 TAmount;\r\n  }\r\n\r\n  struct UserData {\r\n    uint256 LastWithdrawWeek;\r\n    uint256 LastWithdrawAmount;\r\n    uint256 TotalWithdrawAmount;\r\n  }\r\n\r\n  bool internal Locked;\r\n\r\n  uint256 public CurrentWeek; // Current week counter\r\n  uint256 public LastWeekStart; // Timestamp of the start of the last week\r\n  uint256 public NextWeekStart; // Timestamp of the start of the next week\r\n  uint256 public LastDepositWeek; // Week number of the last deposit\r\n\r\n  uint256 public TotalAmount; // Total amount deposited\r\n  uint256 public TotalRanksEarnings;\r\n  uint256 public TotalDepositWeek; // Week number of the total deposit when amount was deposited\r\n\r\n  mapping(address => uint256) public UserRanksEarnings;\r\n  mapping(address => mapping(uint8 => UserData)) public User;\r\n  mapping(address => mapping(uint8 => bool)) public IsUserExists;\r\n  mapping(uint256 => mapping(uint8 => WeekData)) public Week;\r\n\r\n  address public TOKEN;\r\n  address public CONTRACT;\r\n\r\n  constructor(address tokenAddr) {\r\n    TOKEN = tokenAddr;\r\n\r\n    CurrentWeek = 1; // Initialize current week counter to 1\r\n    LastWeekStart = block.timestamp; // Initialize the timestamp of the start of the last week to the contract deployment time\r\n    NextWeekStart = block.timestamp + 1 weeks; // Calculate the timestamp for the start of the next week\r\n    LastDepositWeek = 0; // Initialize last deposit week to 0\r\n\r\n    TotalAmount = 0; // Initialize total amount deposited to 0\r\n    TotalDepositWeek = 0; // Initialize total amount deposited to 0\r\n  }\r\n\r\n  modifier noReentrant() {\r\n    require(!Locked, \"No re-entrancy\");\r\n    Locked = true;\r\n    _;\r\n    Locked = false;\r\n  }\r\n\r\n  modifier OnlyContract() {\r\n    require(msg.sender == CONTRACT, \"POOL: Not contract\");\r\n    _;\r\n  }\r\n\r\n  function setContractAddr(\r\n    address contAddr,\r\n    address userAddr\r\n  ) external returns (bool) {\r\n    require(CONTRACT == address(0));\r\n\r\n    CONTRACT = contAddr;\r\n\r\n    for (uint8 i = 1; i <= 8; i++) {\r\n      User[userAddr][i] = UserData({\r\n        LastWithdrawWeek: 0,\r\n        LastWithdrawAmount: 0,\r\n        TotalWithdrawAmount: 0\r\n      });\r\n\r\n      IsUserExists[userAddr][i] = true;\r\n      Week[TotalDepositWeek][i].TUsers++;\r\n    }\r\n\r\n    return true;\r\n  }\r\n\r\n  function DepositAmount(\r\n    uint8 level,\r\n    uint256 amount\r\n  ) external OnlyContract returns (bool) {\r\n    if (amount == 0) return false;\r\n\r\n    if (block.timestamp >= NextWeekStart) _updateNewWeek(level);\r\n\r\n    TotalAmount += amount; // Add the deposit amount to the total amount deposited\r\n    Week[TotalDepositWeek][level].TAmount += amount;\r\n\r\n    emit Deposit(level, amount, TotalDepositWeek); // Emit the deposit event\r\n    return true;\r\n  }\r\n\r\n  function _updateNewWeek(uint8 level) internal {\r\n    // Update if a new week has started\r\n    uint256 weeksPassed = (block.timestamp - LastWeekStart) / 1 weeks; // Calculate the number of weeks passed since the last week start\r\n    CurrentWeek += weeksPassed; // Increment the current week counter by the number of weeks passed\r\n    LastWeekStart += weeksPassed * 1 weeks; // Update the timestamp of the start of the last week\r\n    NextWeekStart += weeksPassed * 1 weeks; // Update the timestamp of the start of the next week\r\n\r\n    // Save the amount and update week if necessary\r\n    if (LastDepositWeek != CurrentWeek) {\r\n      LastDepositWeek = CurrentWeek; // Update the last deposit week to the current week\r\n\r\n      Week[TotalDepositWeek + 1][level] = WeekData({\r\n        TUsers: Week[TotalDepositWeek][level].TUsers,\r\n        TAmount: 0\r\n      });\r\n\r\n      TotalDepositWeek++;\r\n    }\r\n  }\r\n\r\n  function AddUser(\r\n    uint8 level,\r\n    address userAddr\r\n  ) external OnlyContract returns (bool) {\r\n    if (IsUserExists[userAddr][level]) return false;\r\n\r\n    User[userAddr][level] = UserData({\r\n      LastWithdrawWeek: TotalDepositWeek,\r\n      LastWithdrawAmount: 0,\r\n      TotalWithdrawAmount: 0\r\n    });\r\n    IsUserExists[userAddr][level] = true;\r\n    Week[TotalDepositWeek][level].TUsers++;\r\n\r\n    emit UserAdded(userAddr, level, TotalDepositWeek); // Emit the deposit event\r\n    return true;\r\n  }\r\n\r\n  function WithdrawAmount(\r\n    uint8 level,\r\n    address userAddr\r\n  ) external noReentrant returns (bool) {\r\n    require(IsUserExists[userAddr][level], \"POOL: User not exists\");\r\n\r\n    if (block.timestamp >= NextWeekStart) _updateNewWeek(level);\r\n\r\n    require(\r\n      User[userAddr][level].LastWithdrawWeek < TotalDepositWeek,\r\n      \"POOL: Invalid time to Withdraw\"\r\n    );\r\n\r\n    uint256 amount;\r\n    for (\r\n      uint i = User[userAddr][level].LastWithdrawWeek;\r\n      i < TotalDepositWeek;\r\n      i++\r\n    ) {\r\n      amount += (Week[i][level].TAmount / Week[i][level].TUsers);\r\n    }\r\n\r\n    TotalAmount -= amount;\r\n    TotalRanksEarnings += amount;\r\n    UserRanksEarnings[userAddr] += TotalDepositWeek;\r\n    User[userAddr][level].LastWithdrawAmount = amount;\r\n    User[userAddr][level].TotalWithdrawAmount += amount;\r\n    User[userAddr][level].LastWithdrawWeek = TotalDepositWeek;\r\n\r\n    TransferHelper.safeTransfer(TOKEN, userAddr, amount);\r\n\r\n    emit Withdraw(userAddr, amount, TotalDepositWeek - 1);\r\n    return true;\r\n  }\r\n\r\n  function CheckWithdrawAmount(\r\n    uint8 level,\r\n    address userAddr\r\n  ) external view returns (uint256 lastWeekAmount, uint256 currentWeekAmount) {\r\n    if (IsUserExists[userAddr][level]) return (0, 0);\r\n\r\n    uint256 amount;\r\n    for (\r\n      uint i = User[userAddr][level].LastWithdrawWeek;\r\n      i < TotalDepositWeek;\r\n      i++\r\n    ) {\r\n      amount += (Week[i][level].TAmount / Week[i][level].TUsers);\r\n    }\r\n\r\n    return (\r\n      amount,\r\n      (Week[TotalDepositWeek][level].TAmount /\r\n        Week[TotalDepositWeek][level].TUsers)\r\n    );\r\n  }\r\n\r\n  function IsTimeToWithdraw(\r\n    uint8 level,\r\n    address userAddr\r\n  ) external view returns (bool) {\r\n    if (User[userAddr][level].LastWithdrawWeek < TotalDepositWeek) return true;\r\n    if (block.timestamp >= NextWeekStart) return true;\r\n    return false;\r\n  }\r\n}\r\n",
  "sourcePath": "C:\\Users\\admin\\Documents\\GitHub\\genios-club\\truffle-test\\contracts\\Pool.sol",
  "compiler": {
    "name": "solc",
    "version": "0.8.20+commit.a1b79de6.Emscripten.clang"
  },
  "schemaVersion": "3.4.14",
  "updatedAt": "2023-06-28T14:57:38.173Z",
  "networkType": "ethereum",
  "devdoc": {
    "kind": "dev",
    "methods": {},
    "version": 1
  },
  "userdoc": {
    "kind": "user",
    "methods": {},
    "version": 1
  }
}